:020000040000FA
:020000002B28AB
:040002000034003492
:08000800090082075934653438
:1000100073342034633461346E3464346C34653446
:10002000003482074E346F342034633461346E34CC
:1000300064346C3465340034820743346834653486
:1000400063346B3469346E3467342E3420342E3488
:1000500020342E3400348B0183160313FA308600CB
:100060008801831203138601880184208312A22051
:10007000861C3828060E0F390C3A031942288618B8
:100080003F2838280615A220F001030170081C2023
:10009000003A03194E28B720F00A4628861D5E282C
:1000A0006C20A220F001030170081120003A03190E
:1000B0005C28B720F00A5428061138286C20A220AA
:1000C000F001030170080520003A03196A28B720DF
:1000D000F00A6228061138288A30F500BA30F60096
:1000E0000330F700F50B7528F60B7728F70B72280D
:1000F000792800000800C330F3000A30F400F30B45
:100100008228F40B7F280800831288157B207B202F
:100110007B203330A8207B207B203230A8207B201E
:100120007B202830A8207B207B200C30A8207B203F
:100130007B200630A8207B207B200130A8207B205C
:100140007B2008000130A8200800C030A82008004B
:100150000811F100F039880088157B208811710E94
:10016000F039880088157B2088117B20080008154D
:10017000F2007208F039043E880088157B2088114F
:10018000720EF039043E880088157B208811080023
:02400E00723FFF
:00000001FF
