:020000040000FA
:020000003C289A
:040002000034003492
:080008003629820750346134EF
:1000100073347334003482074C3445344434203410
:100020006634613469346C340034820746346C348D
:10003000693463346B34653472342034663461342B
:1000400069346C34003482074E346F347434203495
:10005000703472346534733465346E3474340034FF
:100060008207543465347334743469346E346734BD
:100070002E342E342E34003420308B00831603139C
:100080008501C7308100F230860088010330890085
:1000900007309F00831203138501860187018801C1
:1000A0008901F220861C5228060E0F390C3A0319DA
:1000B0005C208618592852282630FE00FF018B1735
:1000C0008101102179100530F60009308500CF201C
:1000D00008308500CF200A308500CF20023085000F
:1000E000CF2006308500CF2004308500CF2005309A
:1000F0008500CF2001308500CF20F60B65288501D3
:1001000079188D28F501030175082320003A031999
:100110008C282521F50A8428C928F50103017508D2
:100120003020003A031997282521F50A8F28FA0173
:10013000DA20DA20DA20DA207A08FB0007307B02A6
:100140000318AE281021F501030175080B20003AB1
:100150000319AD282521F50AA528C92845307B02B9
:100160000318BE281021F501030175080520003A87
:100170000319BD282521F50AB528C9281021F50144
:10018000030175081520003A0319C9282521F50A2D
:10019000C12813218B137F08303E25210800F3303E
:1001A000F2002F30F40009187914F20BD828F40B60
:1001B000D32808008A30F200BA30F3000330F4008C
:1001C000F20BE328F30BE528F40BE028E728000006
:1001D0000800C330F2000A30F400F20BF028F40BF0
:1001E000ED28080083128815E920E920E920333042
:1001F0001621E920E92032301621E920E9202830B3
:100200001621E920E9200C301621E920E9200630EA
:100210001621E920E92001301621E920E920080013
:10022000013016210800C030162108000811F8001E
:10023000F03988008815E9208811780EF039880097
:100240008815E9208811E92008000815F7007708CB
:10025000F039043E88008815E9208811770EF039BE
:10026000043E88008815E92088110800FC00030E70
:100270008301FD00FE0B3F292630FE00FF0A89188E
:0E028000FA0A7D0E8300FC0E7C0E0B110900A5
:02400E00723FFF
:00000001FF
