:020000040000FA
:020000003C289A
:040002000034003492
:080008003329820750346134F2
:1000100073347334003482074C3445344434203410
:100020006634613469346C340034820746346C348D
:10003000693463346B34653472342034663461342B
:1000400069346C34003482074E346F347434203495
:10005000703472346534733465346E3474340034FF
:100060008207543465347334743469346E346734BD
:100070002E342E342E34003420308B00831603139C
:100080008501C7308100F230860088010330890085
:1000900007309F00831203138501860187018801C1
:1000A0008901EF20861C5228060E0F390C3A0319DD
:1000B0005C208618592852282630FD00FE018B1737
:1000C00081010D210530F60009308500CE20083071
:1000D0008500CE200A308500CE2002308500CE205B
:1000E00006308500CE2004308500CE200530850006
:1000F000CE2001308500CE20F60B6428850109183A
:100100008C28F501030175082320003A03198B2878
:100110002221F50A8328C828F5010301750830203B
:10012000003A031996282221F50A8E28F901D720D2
:10013000D720D720D7207908FA0007307A02031891
:10014000AD280D21F501030175080B20003A0319B4
:10015000AC282221F50AA428C82845307A020318C1
:10016000BD280D21F501030175080520003A03198A
:10017000BC282221F50AB428C8280D21F501030165
:1001800075081520003A0319C8282221F50AC0284D
:1001900010218B137E08303E22210800F330F2003C
:1001A0003530F400F20BD528F40BD22808008A3041
:1001B000F200BA30F3000330F400F20BE028F30B46
:1001C000E228F40BDD28E42800000800C330F20028
:1001D0000A30F400F20BED28F40BEA280800831231
:1001E0008815E620E620E62033301321E620E620BD
:1001F00032301321E620E62028301321E620E620C5
:100200000C301321E620E62006301321E620E620FC
:1002100001301321E620E6200800013013210800F8
:10022000C030132108000811F800F0398800881543
:10023000E6208811780EF03988008815E6208811AC
:10024000E62008000815F7007708F039043E88001A
:100250008815E6208811770EF039043E880088154D
:10026000E62088110800FB00030E8301FC00FD0B53
:100270003C292630FD00FE0A8918F90A7C0E83000D
:08028000FB0E7B0E0B110900BF
:02400E00723FFF
:00000001FF
