:020000040000FA
:1000000001288B0183168501F23086008701880163
:10001000831285018601870188017620F30103019F
:1000200073083720003A03191828A620F30A10286D
:100030006020F301030173083720003A03192328D5
:10004000A620F30A1B28CB3097203F30A620632040
:10005000F301030173084620003A03193228A62051
:10006000F30A2A281830972066203228362882077B
:1000700059344F34553420345234453441344434A7
:10008000203446344134533454340034820720340D
:1000900020342034203420342034573445344E3436
:1000A00059344934203459344F345534203444348D
:1000B00041342034423445345334543421340034F0
:1000C000C030972008000130972008008830F000E9
:1000D000BD30F1000330F200F00B6F28F10B7128F6
:1000E000F20B6C28732800000000080083128815AA
:1000F000B720B720B72033309720B720B720323051
:100100009720B720B72028309720B720B7200C3091
:100110009720B720B72006309720B720B7200130AE
:100120009720B720B7200800013097200800081159
:10013000F700F03988008815B7208811770EF0395C
:1001400088008815B7208811B72008000815F80026
:100150007808F039043E88008815B7208811780E99
:10016000F039043E88008815B72088110800143043
:10017000F600FF30F500F50BBB28F60BB928080098
:040180000034003413
:02400E00723FFF
:00000001FF
