:020000040000FA
:10000000BF2882075334543441344E34443442348C
:1000100059340034820749346E3473347034653493
:100020006334743469346E34673420342E342034AD
:100030002E3420342E340034820743346F346D3430
:1000400070346C34653474346534003482074F3452
:100050007034653472346134743469346F346E349E
:100060002034743469346D3465343A340034820792
:1000700020347334653463346F346E3464347334D1
:10008000003482073A3420346E346F3474342034B0
:10009000703472346534733465346E3474340034BF
:1000A00082073A342034703461347334733400344A
:1000B00082073A3420344C34453444342034663496
:1000C000613469346C34003482073A342034663445
:1000D0006C34693463346B34653472342034663480
:1000E000613469346C340034820754346F347434AE
:1000F00061346C342034633461346E3464346C3471
:10010000653473343A34203400348207443465341F
:1001100066346534633474346934763465343A341F
:10012000203400348207203420342034203420341A
:1001300020346E346F346E346534003482074534B5
:100140004D3445345234473445344E3443345934B5
:100150002034533454344F345034003482074534FF
:10016000783470346F347234743469346E34673474
:1001700020342E3420342E3420342E3400348B019D
:1001800083168501F230860087018801831285017C
:100190008601870188010B23A201030122080120A7
:1001A000003A0319D6283E23A20ACE28861CD62858
:1001B000060E0F390D3A0319E0288618DD28D628D7
:1001C0002923A201030122080A20003A0319EB287F
:1001D0003E23A20AE328582329230530303EA400F9
:1001E0003E23582329230430303EA4003E235823C5
:1001F00029230330303EA4003E2358232923023014
:10020000303EA4003E23582329230130303EA40071
:100210003E2358234A30AF000030B0000130B10017
:100220000230B2000330B3000130B4000130B50039
:100230000130B6000330B7000030B8000330B90019
:100240000730BA002923A201030122081C20003A2A
:1002500003192D293E23A20A252958239422582325
:1002600058231422582358233322861C3529060E7E
:100270000F393D2186183A293529A000003A031D7F
:10028000492929230130303EA4003E233008D721DC
:1002900008002008013A031D552929230230303E69
:1002A000A4003E233108D72108002008023A031D8C
:1002B000612929230330303EA4003E233208D72190
:1002C00008002008043A031D6D2929230430303E1C
:1002D000A4003E233308D72108002008053A031D57
:1002E000792929230530303EA4003E233408D72144
:1002F00008002008063A031D852929230630303ED0
:10030000A4003E233508D72108002008083A031D21
:10031000912929230730303EA4003E233608D721F7
:1003200008002008093A031D9D2929230830303E82
:10033000A4003E233708D721080020080A3A031DED
:10034000A92929230930303EA4003E233808D721AB
:1003500008002008033A031DAF29142208002008D2
:10036000073A031DB5293322080020080B3A031D64
:10037000BB299422080020080F3A031DC129BF227F
:10038000080020080D3A031DC629E02820080E3A6F
:10039000031DD6292923A201030122080120003AC6
:1003A0000319D5293E23A20ACD29D6280800A10089
:1003B000003A031DE629A201030122084120003A68
:1003C0000319E5293E23A20ADD2908002108013A84
:1003D000031DF529A201030122085020003A031948
:1003E000F4293E23A20AEC2908002108023A031D41
:1003F000042AA201030122085820003A0319032A03
:100400003E23A20AFB2908002108033A031D132AF0
:10041000A201030122086420003A0319122A3E2394
:10042000A20A0A2A080008002923A20103012208BF
:100430007420003A03191F2A3E23A20A172A3A08F9
:10044000303EA4003E232C23A20103012208852074
:10045000003A03192E2A3E23A20A262A3908303EE2
:10046000A4003E2308002923A201030122088520BD
:10047000003A03193E2A3E23A20A362A2C23B90841
:10048000031D4D2AA201030122089220003A0319FC
:100490004C2A3E23A20A442A0800B01C552A0130E7
:1004A000303EA4003E2314302F23B11C5D2A0230BD
:1004B000303EA4003E2314302F23B21C652A0330A3
:1004C000303EA4003E2314302F23B31C6D2A043089
:1004D000303EA4003E2314302F23B41C752A05306F
:1004E000303EA4003E2314302F23B51C7D2A063055
:1004F000303EA4003E2314302F23B61C852A07303B
:10050000303EA4003E2314302F23B71C8D2A083020
:10051000303EA4003E2314302F23B81C932A093008
:10052000303EA4003E2308002923A2010301220833
:100530002620003A03199F2A3E23A20A972A2C2339
:100540002F08D8222B080319A92A2B08303EA40013
:100550003E232C080319B02A2C08303EA4003E2369
:100560002D08303EA4003E23A201030122083720BB
:10057000003A0319BE2A3E23A20AB62A08002923FC
:10058000A20103012208AE20003A0319CA2A3E2321
:10059000A20AC22A582358232923A20103012208B0
:1005A0001C20003A0319D72A3E23A20ACF2A0800AA
:1005B0002F08AA000830AE00AB01AC01AD01053038
:1005C0002B020318FC2205302C020318FF220530F1
:1005D0002D0203180223AE030310AF0DAD0D2D1A2B
:1005E0000523AC0D2C1A0823AB0D03102E08031D98
:1005F000DF2A2A08AF0008000330AB0708000330E9
:10060000AC0708000330AD0708002D1203140800E2
:100610002C1203140800831288154F234F234F23F5
:1006200033302F234F234F2332302F234F234F2399
:1006300028302F234F234F230C302F234F234F23BA
:1006400006302F234F234F2301302F234F234F23D7
:10065000080001302F230800C0302F2308000811A4
:10066000A300F039880088154F238811230EF03934
:10067000880088154F2388114F2308000815A4000F
:100680002408F039043E880088154F238811240E71
:10069000F039043E880088154F2388110800143073
:1006A000A600FF30A500A50B532BA60B512B08006D
:1006B0008830A700BD30A8000330A900A70B612B2C
:1006C000A80B632BA90B5E2B652B00000000080014
:0406D00000340034BE
:02400E00723FFF
:00000001FF
