:020000040000FA
:02000000C32813
:040002000034003492
:080008006F2B820753345434BE
:1000100041344E3444344234593400348207493434
:100020006E347334703465346334743469346E34CC
:10003000673420342E3420342E3420342E340034CF
:10004000820743346F346D3470346C3465347434E7
:100050006534003482074F3470346534723461344F
:10006000743469346F346E342034743469346D34CC
:1000700065343A3400348207203473346534633491
:100080006F346E3464347334003482073A3420346D
:100090006E346F3474342034703472346534733495
:1000A00065346E347434003482073A34203470344A
:1000B000613473347334003482073A3420344C345E
:1000C0004534443420346634613469346C3400344B
:1000D00082073A34203466346C34693463346B34C8
:1000E0006534723420346634613469346C340034DD
:1000F000820754346F34743461346C342034633484
:1001000061346E3464346C34653473343A3420347E
:10011000003482074434653466346534633474349F
:100120006934763465343A3420340034820720341C
:10013000203420342034203420346E346F346E3434
:1001400065340034820745344D34453452344734E5
:1001500045344E34433459342034533454344F34BA
:100160005034003482074534783470346F3472343C
:10017000743469346E34673420342E3420342E3491
:1001800020342E34003480308B0083168501F23009
:100190008600870188018312850186018701880115
:1001A0001223A201030122080520003A0319DB28CB
:1001B0004523A20AD328861CDB28060E0F390D3AE8
:1001C0000319E5288618E228DB284C30AF00B2017D
:1001D0008B1683120313810183160313C63081002B
:1001E00083123023A201030122080E20003A0319D2
:1001F000FC284523A20AF4285F235F235F235F23A3
:100200005F235F235F235F235F235F235F235F23DE
:100210005F235F235F235F235F235F235F235F23CE
:100220005F235F230030B3000130B4000230B5001B
:100230000330B6000130B7000130B8000130B9001A
:100240000330BA000030BB000330BC000730BD00F3
:100250008B123023A201030122082020003A031947
:1002600034294523A20A2C295F239B225F235F2385
:100270001B225F235F233A22861C3C29060E0F397E
:100280004421861841293C29A000003A031D502929
:1002900030230130303EA40045233308DE2108001E
:1002A0002008013A031D5C2930230230303EA400AF
:1002B00045233408DE2108002008023A031D68297E
:1002C00030230330303EA40045233508DE210800EA
:1002D0002008043A031D742930230430303EA40062
:1002E00045233608DE2108002008053A031D802931
:1002F00030230530303EA40045233708DE210800B6
:100300002008063A031D8C2930230630303EA40015
:1003100045233808DE2108002008083A031D9829E3
:1003200030230730303EA40045233908DE21080081
:100330002008093A031DA42930230830303EA400C8
:1003400045233A08DE21080020080A3A031DB02997
:1003500030230930303EA40045233B08DE2108004D
:100360002008033A031DB6291B2208002008073A7B
:10037000031DBC293A22080020080B3A031DC2299C
:100380009B22080020080F3A031DC829C622080036
:1003900020080D3A031DCD29E52820080E3A031D3B
:1003A000DD293023A201030122080520003A0319A8
:1003B000DC294523A20AD429DB280800A100003A41
:1003C000031DED29A201030122084520003A03196B
:1003D000EC294523A20AE42908002108013A031D5B
:1003E000FC29A201030122085420003A0319FB2929
:1003F0004523A20AF32908002108023A031D0B2A0B
:10040000A201030122085C20003A03190A2A4523AD
:10041000A20A022A08002108033A031D1A2AA2018F
:10042000030122086820003A0319192A4523A20A69
:10043000112A080008003023A201030122087820B5
:10044000003A0319262A4523A20A1E2A3D08303EF7
:10045000A40045233323A201030122088920003A86
:100460000319352A4523A20A2D2A3C08303EA40050
:10047000452308003023A201030122088920003A05
:100480000319452A4523A20A3D2A3323BC08031D2C
:10049000542AA201030122089620003A0319532A84
:1004A0004523A20A4B2A0800B31C5C2A0130303EC7
:1004B000A400452314303623B41C642A0230303E95
:1004C000A400452314303623B51C6C2A0330303E7B
:1004D000A400452314303623B61C742A0430303E61
:1004E000A400452314303623B71C7C2A0530303E47
:1004F000A400452314303623B81C842A0630303E2D
:10050000A400452314303623B91C8C2A0730303E12
:10051000A400452314303623BA1C942A0830303EF8
:10052000A400452314303623BB1C9A2A0930303EE0
:10053000A400452308003023A201030122082A2039
:10054000003A0319A62A4523A20A9E2A3323320819
:10055000DF222B080319B02A2B08303EA4004523C4
:100560002C080319B72A2C08303EA40045232D0877
:10057000303EA4004523A201030122083B20003A9B
:100580000319C52A4523A20ABD2A08003023A20167
:1005900003012208B220003A0319D12A4523A20AF6
:1005A000C92A5F235F233023A201030122082020F0
:1005B000003A0319DE2A4523A20AD62A0800320887
:1005C000AA000830AE00AB01AC01AD0105302B0232
:1005D0000318032305302C020318062305302D02CF
:1005E00003180923AE030310B20DAD0D2D1A0C2311
:1005F000AC0D2C1A0F23AB0D03102E08031DE62A99
:100600002A08B20008000330AB0708000330AC072B
:1006100008000330AD0708002D12031408002C1247
:1006200003140800831288155623562356233330AB
:10063000362356235623323036235623562328306A
:100640003623562356230C303623562356230630A2
:1006500036235623562301303623562356230800CB
:10066000013036230800C030362308000811A300EB
:10067000F0398800881556238811230EF039880038
:10068000881556238811562308000815A40024084D
:10069000F039043E8800881556238811240EF0395D
:1006A000043E880088155623881108001430A600DF
:1006B000FF30A500A50B5A2BA60B582B080088303D
:1006C000A700BD30A8000330A900A70B682BA80B1A
:1006D0006A2BA90B652B6C2B000000000800B000F2
:1006E000030E8312B100AF0B782B4C30AF00B20A6F
:0C06F000310E8300B00E300E0B1109001B
:02400E00723FFF
:00000001FF
