:020000040000FA
:10000000831688010F3099009801831298171816EB
:10001000831698168312A00120081D20003E0319A4
:10002000182899008316981C13288312A00A0C28FC
:100030008C1E18281A08990018288207483465343D
:100040006C346C346F342034443461347634693425
:1000500064342C3420345434683469347334203498
:100060006934733420345034493443347434723432
:1000700069346334693461342034743461346C34E9
:0C0080006B3469346E3467342E34003465
:04008C000034003408
:02400E00723FFF
:00000001FF
