:020000040000FA
:10000000831688010F3099009801831298171816EB
:10001000831698168312593099008316981C0E285F
:1000200083126F3099008316981C14288312753040
:1000300099008316981C1A28831220309900831681
:10004000981C20288312733099008316981C262848
:1000500083126F3099008316981C2C28831220304D
:1000600099008316981C32288312623099008316F7
:10007000981C382883126F3099008316981C3E28EC
:100080008312733099008316981C442883127330AE
:1000900099008316981C4A288312213099008316F0
:1000A000981C50288312203099008316981C5628DB
:0E00B0008312013099008316981C5C285E288C
:0200BE0000340C
:0200C00000340A
:02400E00723FFF
:00000001FF
