:020000040000FA
:02000000CF2807
:040002000034003492
:08000800802C820753345434AC
:1000100041344E3444344234593400348207493434
:100020006E347334703465346334743469346E34CC
:10003000673420342E3420342E3420342E340034CF
:10004000820743346F346D3470346C3465347434E7
:100050006534003482074F3470346534723461344F
:10006000743469346F346E342034743469346D34CC
:1000700065343A3400348207203473346534633491
:100080006F346E3464347334003482073A3420346D
:100090004E346F34743420347034723465347334B5
:1000A00065346E347434003482073A34203450346A
:1000B000613473347334003482073A3420344C345E
:1000C0004534443420346634613469346C3400344B
:1000D00082073A34203446346C34693463346B34E8
:1000E0006534723420346634613469346C340034DD
:1000F000820754346F34743461346C342034633484
:1001000061346E3464346C34653473343A3420347E
:10011000003482074C3446343A34203400348207A9
:10012000463446343A342034003482073C346E344A
:100130006F346E3465343E3400348207453478348D
:1001400070346F347234743469346E3467342034EC
:100150002E3420342E3420342E34003482073134AF
:100160002D343434203474346F3420347334653493
:10017000653420346C346F34673400348207533470
:10018000543441344E344434423459342034743479
:100190006F342034653478346934743400348030FA
:1001A0008B0083168501F2308600183087008801A5
:1001B000831285018601870188018F243324A201DF
:1001C000030122080520003A0319E9286624A20A3F
:1001D000E1285424323066243030662406308312FD
:1001E0000313F300DC248312031375082B2577080F
:1001F000BF0866247808C00866242F3066240530BE
:1002000083120313F300DC248312031375082B25D8
:100210007708C10866247808C20866242F3066244F
:10022000043083120313F300DC24831203137508D4
:100230002B257708C30866247808C4086624143080
:100240005724023083120313F300DC2483120313B8
:1002500075082B257708C50866247808C608662423
:100260003A306624013083120313F300DC24831236
:10027000031375082B257708C70866247808C80873
:100280006624C0305724861CEA28060E0F39A000C9
:100290000C3A0319522920080E3A0319A12986188D
:1002A0004F29EA282630AF00B2018B168101831650
:1002B0000313C730810083125124A20103012208D5
:1002C0000E20003A031967296624A20A5F29232415
:1002D000232423242324232423240030B3000130A7
:1002E000B4000330B5000330B6000130B700013070
:1002F000B8000130B9000330BA000030BB00003054
:10030000BC000230BD000730BE008B125124A20198
:10031000030122082020003A031991296624A20A29
:1003200089292324AC2323242324EB2223242324DC
:100330001C23861C9929060E0F39132286189E2924
:1003400099295124A20103012208AE20003A031981
:10035000AC296624A20AA4295424A201030122087C
:10036000BE20003A0319B7296624A20AAF29861CC9
:10037000B729060E0F39A000003A031DCC295124DD
:10038000A201030122089520003A0319CA29662414
:10039000A20AC2292324A1292008013A031DDD292C
:1003A0005124A201030122089520003A0319DB29F8
:1003B0006624A20AD3292324A1292008023A031D76
:1003C000EE295124A201030122089520003A0319C5
:1003D000EC296624A20AE4292324A1292008043A4E
:1003E000031DFF295124A201030122089520003A90
:1003F0000319FD296624A20AF5292324A12920082E
:100400000D3A031D102A5124A201030122080520E0
:10041000003A03190E2A6624A20A062A5424EA285E
:100420008618102AB729A000003A031D1F2A51245C
:100430000130303EA40066243308AE2208002008B4
:10044000013A031D2B2A51240230303EA4006624B9
:100450003408AE2208002008023A031D372A51242E
:100460000330303EA40066243508AE220800200880
:10047000043A031D432A51240430303EA40066246C
:100480003608AE2208002008053A031D4F2A5124E1
:100490000530303EA40066243708AE22080020084C
:1004A000063A031D5B2A51240630303EA400662420
:1004B0003808AE2208002008083A031D672A512494
:1004C0000730303EA40066243908AE220800200818
:1004D000093A031D732A51240830303EA4006624D3
:1004E0003A08AE22080020080A3A031D7F2A512448
:1004F0000930303EA40066243B08AE2208002008E4
:10050000033A031D852AEB2208002008073A031D41
:100510008B2A1C23080020080B3A031D912AAC23C8
:10052000080020080F3A031D972AD7230800200847
:100530000D3A031DA82A5124A20103012208052017
:10054000003A0319A62A6624A20A9E2A5424EA28FD
:1005500020080C3A031DAD2A52290800A100003AD8
:10056000031DBD2AA201030122084520003A0319F8
:10057000BC2A6624A20AB42A08002108013A031DF5
:10058000CC2AA201030122085420003A0319CB2AE5
:100590006624A20AC32A08002108023A031DDB2AA6
:1005A000A201030122085C20003A0319DA2A66241A
:1005B000A20AD22A08002108033A031DEA2AA2014E
:1005C000030122086820003A0319E92A6624A20AD6
:1005D000E12A080008005124A20103012208782022
:1005E000003A0319F62A6624A20AEE2A3E08303E93
:1005F000A40066245424A201030122088920003AA1
:100600000319052B6624A20AFD2A3C08303EA400EB
:1006100066241430572414305724A2010301220801
:100620008F20003A0319172B6624A20A0F2B3D08CE
:10063000303EA400662408005124A20103012208D0
:100640008920003A0319272B6624A20A1F2BBC0815
:10065000031D352BA201030122089520003A03193E
:10066000342B6624A20A2C2B372B0230532354241C
:10067000A201030122088F20003A0319422B6624AD
:10068000A20A3A2BBD08031D502BA2010301220828
:100690009520003A03194F2B6624A20A472B080025
:1006A000033053230800A1003302031D5D2B0130EA
:1006B000303EA40066241430572421083402031D60
:1006C000672B0230303EA4006624143057242108E2
:1006D0003502031D712B0330303EA4006624143014
:1006E000572421083602031D7B2B0430303EA40022
:1006F00066241430572421083702031D852B05304A
:10070000303EA40066241430572421083802031D0B
:100710008F2B0630303EA400662414305724210865
:100720003902031D992B0730303EA4006624143093
:10073000572421083A02031DA32B0830303EA400A1
:1007400066241430572421083B02031DAB2B0930CB
:10075000303EA400662408005124A20103012208AF
:100760002A20003A0319B72B6624A20AAF2B54247F
:100770003208F0232B080319C12B2B08303EA400AC
:1007800066242C080319C82B2C08303EA4006624CC
:100790002D08303EA4006624A201030122083B205C
:1007A000003A0319D62B6624A20ACE2B0800512446
:1007B000A201030122089D20003A0319E22B6624BE
:1007C000A20ADA2B232423245124A20103012208A4
:1007D0002020003A0319EF2B6624A20AE72B080019
:1007E0003208AA000830AE00AB01AC01AD01053003
:1007F0002B020318142405302C020318172405308B
:100800002D0203181A24AE030310B20DAD0D2D1ADC
:100810001D24AC0D2C1A2024AB0D03102E08031D33
:10082000F72B2A08B20008000330AB07080003309A
:10083000AC0708000330AD0708002D1203140800B0
:100840002C12031408008830A700BD30A800033024
:10085000A900A70B2C2CA80B2E2CA90B292C302C73
:10086000000000000800831288157724772477247D
:100870003330572477247724323057247724772451
:1008800028305724772477240C3057247724772472
:10089000063057247724772401305724772477248F
:1008A0000800013057240800C03057240800081100
:1008B000A300F0398800881577248811230EF039B9
:1008C0008800881577248811772408000815A4006B
:1008D0002408F039043E8800881577248811240EF6
:1008E000F039043E880088157724881108001430F8
:1008F000A600FF30A500A50B7B2CA60B792C0800C9
:10090000B000030E8312B100AF0B892C2630AF006C
:0E091000B20A310E8300B00E300E0B1109003A
:02091E0083163E
:1009200003139401183083160313930008308312C5
:1009300003139400941683160313111511199E2C9A
:1009400008008316031311141118A42CD03083123D
:1009500003139300831603131419AC2C831603138B
:1009600083160313111BD52C8312031373088312F0
:1009700003139300831603131419BC2C831603135B
:1009800083160313111BD52C8312031374088312CF
:1009900003139300831603131419CC2C831603132B
:1009A00083160313111BD52CD62C000083160313BA
:1009B00011151119D92C08008316031311141118DD
:1009C000DF2CD03083120313930083160313141902
:1009D000E72C8316031383160313111B242D831294
:1009E000031373088312031393008316031314195C
:1009F000F72C8316031383160313111B242D831660
:100A0000031391149118022DD13083120313930014
:100A10008316031314190A2D831603138316031365
:100A2000111B242D8316031391159119152D831273
:100A30000313130883120313F5008316031391168F
:100A40001116111A212D252D0000831603131115DF
:100A50001119282D080083120313F600760E0F39A2
:100A6000303EF7008312031376080F39303EF8004A
:100A7000080083160313111411183C2D1030831233
:100A800003139300831603131419442D83160313C1
:100A900083160313111B5D2D831203137008831239
:100AA00003139300831603131419542D8316031391
:100AB00083160313111B5D2D5D2D83160313111572
:100AC0001119602D08008316031311141118662DD7
:100AD00011308312031393008316031314196E2D20
:100AE0008316031383160313111B872D8316031319
:100AF00091159119792D831203131308831203138F
:100B0000F0008316031391161116111A852D831602
:0A0B10000313111511198A2D0800B6
:02400E00723FFF
:00000001FF
