:020000040000FA
:02000000B32823
:040002000034003492
:08000800A72B82075334543486
:1000100041344E3444344234593400348207493434
:100020006E347334703465346334743469346E34CC
:10003000673420342E3420342E3420342E340034CF
:10004000820743346F346D3470346C3465347434E7
:100050006534003482074F3470346534723461344F
:10006000743469346F346E342034743469346D34CC
:1000700065343A3400348207203473346534633491
:100080006F346E3464347334003482073A3420346D
:100090006E346F3474342034703472346534733495
:1000A00065346E347434003482073A34203470344A
:1000B000613473347334003482073A3420344C345E
:1000C0004534443420346634613469346C3400344B
:1000D00082073A34203466346C34693463346B34C8
:1000E0006534723420346634613469346C340034DD
:1000F000820754346F34743461346C342034633484
:1001000061346E3464346C34653473343A3420347E
:10011000003482074434653466346534633474349F
:100120006934763465343A3420340034820720341C
:10013000203420342034203420346E346F346E3434
:100140006534003482074534783470346F34723447
:10015000743469346E34673420342E3420342E34B1
:1001600020342E34003480308B0083168501F23029
:10017000860087018801071687158312850186018D
:1001800087018801B6234A23A20103012208052022
:10019000003A0319CE287D23A20AC6286B233230E9
:1001A0007D2330307D23063083120313F3000324B4
:1001B00083120313750852247708BE087D2378083C
:1001C000BF087D232F307D23053083120313F300F6
:1001D000032483120313750852247708C0087D2373
:1001E0007808C1087D232F307D2304308312031348
:1001F000F300032483120313750852247708C208FE
:100200007D237808C3087D2314306E2302308312C7
:100210000313F30003248312031375085224770891
:10022000C4087D237808C5087D233A307D2301303A
:1002300083120313F300032483120313750852245B
:100240007708C6087D237808C7087D23C0306E2351
:10025000861CCF28060E0F390D3A0319322986184D
:100260002F29CF282630AF00B2018B1681018316CB
:100270000313C730810083126823A20103012208FF
:100280000E20003A031947297D23A20A3F2997230C
:1002900097230030B3000130B4000230B5000330C2
:1002A000B6000130B7000130B8000130B9000330AA
:1002B000BA000030BB000330BC000730BD008B1219
:1002C0006823A201030122082020003A03196B29A8
:1002D0007D23A20A63299723D322972397235322AE
:1002E000972397237222861C7329060E0F397B21D0
:1002F000861878297329A000003A031D87296823EE
:100300000130303EA4007D23330816220800200867
:10031000013A031D932968230230303EA4007D2357
:100320003408162208002008023A031D9F2968237A
:100330000330303EA4007D23350816220800200833
:10034000043A031DAB2968230430303EA4007D230A
:100350003608162208002008053A031DB72968232D
:100360000530303EA4007D233708162208002008FF
:10037000063A031DC32968230630303EA4007D23BE
:100380003808162208002008083A031DCF296823E0
:100390000730303EA4007D233908162208002008CB
:1003A000093A031DDB2968230830303EA4007D2371
:1003B0003A081622080020080A3A031DE729682394
:1003C0000930303EA4007D233B0816220800200897
:1003D000033A031DED29532208002008073A031DA4
:1003E000F3297222080020080B3A031DF929D322B1
:1003F000080020080F3A031DFF29FE2208002008EC
:100400000D3A031D042A322920080E3A031D152A2D
:100410006823A201030122080520003A0319132AC8
:100420007D23A20A0B2A6B23CF280800A100003AE3
:10043000031D252AA201030122084520003A0319C1
:10044000242A7D23A20A1C2A08002108013A031D40
:10045000342AA201030122085420003A0319332A46
:100460007D23A20A2B2A08002108023A031D432AF1
:10047000A201030122085C20003A0319422A7D23CD
:10048000A20A3A2A08002108033A031D522AA201AF
:10049000030122086820003A0319512A7D23A20A89
:1004A000492A080008006823A201030122087820D5
:1004B000003A03195E2A7D23A20A562A3D08303EDF
:1004C000A4007D236B23A201030122088920003AA6
:1004D00003196D2A7D23A20A652A3C08303EA40038
:1004E0007D2308006823A201030122088920003A25
:1004F00003197D2A7D23A20A752A6B23BC08031DDC
:100500008C2AA201030122089620003A03198B2AA3
:100510007D23A20A832A0800B31C942A0130303EAE
:10052000A4007D2314306E23B41C9C2A0230303E7C
:10053000A4007D2314306E23B51CA42A0330303E62
:10054000A4007D2314306E23B61CAC2A0430303E48
:10055000A4007D2314306E23B71CB42A0530303E2E
:10056000A4007D2314306E23B81CBC2A0630303E14
:10057000A4007D2314306E23B91CC42A0730303EFA
:10058000A4007D2314306E23BA1CCC2A0830303EE0
:10059000A4007D2314306E23BB1CD22A0930303EC8
:1005A000A4007D2308006823A201030122082A2059
:1005B000003A0319DE2A7D23A20AD62A6B233208C9
:1005C00017232B080319E82A2B08303EA4007D23AB
:1005D0002C080319EF2A2C08303EA4007D232D0897
:1005E000303EA4007D23A201030122083B20003AF3
:1005F0000319FD2A7D23A20AF52A08006823A20117
:1006000003012208A220003A0319092B7D23A20A24
:10061000012B972397236823A2010301220820209E
:10062000003A0319162B7D23A20A0E2B080032086C
:10063000AA000830AE00AB01AC01AD0105302B02C1
:1006400003183B2305302C0203183E2305302D02EE
:1006500003184123AE030310B20DAD0D2D1A442330
:10066000AC0D2C1A4723AB0D03102E08031D1E2BB7
:100670002A08B20008000330AB0708000330AC07BB
:1006800008000330AD0708002D12031408002C12D7
:1006900003140800831288158E238E238E23333093
:1006A0006E238E238E2332306E238E238E232830AA
:1006B0006E238E238E230C306E238E238E230630E2
:1006C0006E238E238E2301306E238E238E2308000B
:1006D00001306E230800C0306E2308000811A3000B
:1006E000F039880088158E238811230EF039880090
:1006F00088158E2388118E2308000815A40024086D
:10070000F039043E880088158E238811240EF039B4
:10071000043E880088158E23881108001430A60036
:10072000FF30A500A50B922BA60B902B080088305C
:10073000A700BD30A8000330A900A70BA02BA80B71
:10074000A22BA90B9D2BA42B000000000800B000D9
:10075000030E8312B100AF0BB02B2630AF00B20AEC
:0C076000310E8300B00E300E0B110900AA
:04076C0083160313DA
:100770009401183083160313930008308312031377
:10078000940094168316031311151119C52B080034
:100790008316031311141118CB2BD03083120313BB
:1007A0009300831603131419D32B83160313831694
:1007B0000313111BFC2B83120313730883120313FF
:1007C0009300831603131419E32B83160313831664
:1007D0000313111BFC2B83120313740883120313DE
:1007E0009300831603131419F32B83160313831634
:1007F0000313111BFC2BFD2B000083160313111593
:100800001119002C08008316031311141118062C5B
:10081000D0308312031393008316031314190E2C84
:100820008316031383160313111B4B2C831203131C
:1008300073088312031393008316031314191E2CD9
:100840008316031383160313111B4B2C83160313F8
:1008500091149118292CD13083120313930083161D
:1008600003131419312C8316031383160313111B5E
:100870004B2C83160313911591193C2C83120313EF
:10088000130883120313F500831603139116111630
:10089000111A482C4C2C0000831603131115111942
:1008A0004F2C080083120313F600760E0F39303EEA
:1008B000F7008312031376080F39303EF800080062
:1008C0008316031311141118632C103083120313B1
:1008D00093008316031314196B2C831603138316CA
:1008E0000313111B842C8312031370088312031348
:1008F00093008316031314197B2C8316031383169A
:100900000313111B842C842C831603131115111946
:10091000872C080083160313111411188D2C113025
:10092000831203139300831603131419952C831653
:10093000031383160313111BAE2C83160313911597
:100940009119A02C83120313130883120313F000D0
:100950008316031391161116111AAC2C8316031368
:0809600011151119B12C08005A
:02400E00723FFF
:00000001FF
