:020000040000FA
:02000000E728EF
:040002000034003492
:08000800022E82075334543428
:1000100041344E3444344234593400348207493434
:100020006E347334703465346334743469346E34CC
:10003000673420342E3420342E3420342E340034CF
:10004000820743346F346D3470346C3465347434E7
:100050006534003482074F3470346534723461344F
:10006000743469346F346E342034743469346D34CC
:1000700065343A3400348207203473346534633491
:100080006F346E3464347334003482073A3420346D
:100090004E346F34743420347034723465347334B5
:1000A00065346E347434003482073A34203450346A
:1000B000613473347334003482073A3420344C345E
:1000C0004534443420346634613469346C3400344B
:1000D00082073A34203446346C34693463346B34E8
:1000E0006534723420346634613469346C340034DD
:1000F000820754346F34743461346C342034633484
:1001000061346E3464346C34653473343A3420347E
:10011000003482074C3446343A34203400348207A9
:10012000463446343A342034003482073C346E344A
:100130006F346E3465343E340034820731342D34EC
:100140003934203474346F34203473346534653476
:1001500020346C346F346734733400348207533482
:10016000543441344E344434423459342034743499
:100170006F34203465347834693474340034820741
:100180004534783470346F34723474343F3400340E
:1001900082074C344F3447345334203474346F3432
:1001A0002034723465347434753472346E340034EF
:1001B00082074F3470346534723461347434693476
:1001C0006F346E342034613474343A340034203067
:1001D0008B008316C730810006308500F230860020
:1001E0001830870088018901831285018601870103
:1001F000880189011326AE25F2258312B901030176
:1002000039080520003A03190829E125B90A00290F
:10021000CF253230E1253030E1250630831203133B
:10022000F3006026831203137508AF267708A90030
:10023000E1257808AA00E1252F30E1250530831259
:100240000313F3006026831203137508AF267708A3
:10025000AB00E1257808AC00E1252F30E125043022
:1002600083120313F3006026831203137508AF266D
:100270007708AD00E1257808AE00E1251430D225DD
:10028000023083120313F3006026831203137508F0
:10029000AF267708AF00E1257808B000E1253A30B5
:1002A000E125013083120313F30060268312031348
:1002B0007508AF267708B100E1257808B200E1257E
:1002C000C030D225861C0929060E0F39B7000C3A1A
:1002D0000319712937080E3A0319FE2986186E2969
:1002E00009292630C600B30181018B17CC25B9013D
:1002F000030139080E20003A03198129E125B90AC2
:100300007929962596250130A0000130A100023000
:10031000A2000130A3000130A4000130A50001308B
:10032000A6000330A7000130A8000130B50001305D
:10033000B6000930B4008B13CC25B901030139088C
:100340002020003A0319A729E125B90A9F29831221
:1003500003176F308D00831603178C130C148C1841
:10036000AF29831203170E308D07831603178C13E2
:100370000C1555308D00AA308D008C140C11831291
:1003800003170E300D020319CD2983120313A5257F
:10039000831203170F308D02AB29831203178313C7
:1003A000373084000E308D00831603178C18D62941
:1003B000831203178D03840300088C008316031730
:1003C0008C130C1555308D00AA308D008C140C1137
:1003D000831203178D08031DD429831203134024AD
:1003E00096259625C42396259625F223861CF62964
:1003F000060E0F39FE228618FB29F629CC25B901F5
:10040000030139089D20003A0319092AE125B90A98
:10041000012ACF25B90103013908AE20003A03199A
:10042000142AE125B90A0C2A861C142A060E0F3953
:10043000B700003A031D212A8312031700308D00F4
:100440007D2A3708013A031D2A2A831203170E302A
:100450008D007D2A3708023A031D332A83120317C1
:100460001C308D007D2A3708043A031D3C2A831274
:1004700003172A308D007D2A3708053A031D452AC7
:100480008312031738308D007D2A3708063A031D82
:100490004E2A8312031746308D007D2A3708083A0A
:1004A000031D572A8312031754308D007D2A370805
:1004B000093A031D602A8312031762308D007D2ADA
:1004C00037080A3A031D692A8312031770308D001A
:1004D0007D2A37080D3A031D7A2ACC25B90103017C
:1004E00039080520003A0319782AE125B90A702A4B
:1004F000CF25092986187A2A142A831329308400E3
:10050000831603178C130C14831203170C08800036
:10051000840A8D0A37300402031D802A83120313D4
:10052000CC25B90103013908D820003A03199B2AC8
:10053000E125B90A932ACF253230E1253030E12573
:100540002908E1252A08E1252F30E1252B08E1259E
:100550002C08E1252F30E1252D08E1252E08E12585
:100560002030E1252F08E1253008E1253A30E1254A
:100570003108E1253208E125962596254024962567
:100580009625C42396259625CC25B9010301390863
:10059000BF20003A0319CF2AE125B90AC72ACF257F
:1005A000B90103013908C820003A0319DA2AE12504
:1005B000B90AD22A861CDA2A060E0F39B700370884
:1005C0000F3A031DE52A6824FE2937080E3A031D59
:1005D000EA2AFE2937080D3A031DFB2ACC25B9016A
:1005E000030139080520003A0319F92AE125B90A5F
:1005F000F12ACF2509298618FB2ADA2AB700003A02
:10060000031D082BCC253130E12520088723080065
:100610003708013A031D122BCC253230E125210881
:10062000872308003708023A031D1C2BCC253330E2
:10063000E1252208872308003708043A031D262BEA
:10064000CC253430E1252308872308003708053AF4
:10065000031D302BCC253530E125240887230800E5
:100660003708063A031D3A2BCC253630E1252508FC
:10067000872308003708083A031D442BCC25373060
:10068000E1252608872308003708093A031D4E2B69
:10069000CC253830E12527088723080037080A3A97
:1006A000031D582BCC253930E12528088723080065
:1006B0003708033A031D5E2BC42308003708073AA6
:1006C000031D642BF223080037080B3A031D6A2B25
:1006D0004024080037080F3A031D702B68240800D7
:1006E00037080D3A031D812BCC25B90103013908C8
:1006F0000520003A03197F2BE125B90A772BCF2576
:10070000092937080C3A031D862B71290800B80007
:10071000003A031D962BB901030139084520003A20
:100720000319952BE125B90A8D2B08003808013AE9
:10073000031DA52BB901030139085420003A031900
:10074000A42BE125B90A9C2B08003808023A031DA6
:10075000B42BB901030139085C20003A0319B32B0B
:10076000E125B90AAB2B08003808033A031DC32B57
:10077000B901030139086820003A0319C22BE125A9
:10078000B90ABA2B08000800CC25B90103013908C1
:100790007820003A0319CF2BE125B90AC72B34087A
:1007A000303EE125CF25B901030139088920003AFF
:1007B0000319DD2BE125B90AD52B3508303EE1259B
:1007C0001430D2251430D225B901030139088F2005
:1007D000003A0319EE2BE125B90AE62B3608303E24
:1007E000E1250800CC25B901030139088920003A28
:1007F0000319FD2BE125B90AF52BB508031D0B2CB8
:10080000B901030139089520003A03190A2CE125A2
:10081000B90A022C0D2C02302924CF25B90103017D
:1008200039088F20003A0319182CE125B90A102C39
:10083000B608031D262CB901030139089520003A9A
:100840000319252CE125B90A1D2C080003302924A1
:100850000800B8000030C70083131F30840009303F
:10086000470203183F2C840AC70A38080002031DF8
:100870002F2C4708303EE1251430D2252F2C0800BC
:10088000CC25B901030139082A20003A03194B2C61
:10089000E125B90A432CCF2533086325C208031983
:1008A000542C4208303EE125C30803195A2C430852
:1008B000303EE1254408303EE125B9010301390805
:1008C0003B20003A0319672CE125B90A5F2C080088
:1008D0000730FC250D30FC255430FC256530FC2507
:1008E0007330FC257430FC252030FC256130FC255C
:1008F0007430FC253A30FC252030FC253230FC25B4
:100900003030FC25831203132908FC2583120313BE
:100910002A08FC252F30FC25831203132B08FC2505
:10092000831203132C08FC252F30FC25831203139C
:100930002D08FC25831203132E08FC252030FC25EE
:10094000831203132F08FC25831203133008FC25A0
:100950003A30FC25831203133108FC25831203135C
:100960003208FC250A30FC250D30FC255430FC25CE
:100970006930FC256D30FC256530FC253A30FC25BE
:100980002030FC252030FC252030FC252030FC25A3
:1009900083120313C2080319D22C831203134208D3
:1009A000303EFC2583120313C3080319DC2C831289
:1009B00003134308303EFC25831203134408303EE2
:1009C000FC252030FC257330FC256530FC25633088
:1009D000FC250A30FC250D30FC254330FC25613018
:1009E000FC256E30FC256430FC256C30FC25653020
:1009F000FC257330FC253A30FC252030FC252030C6
:100A0000FC252030FC252030FC252030FC25203022
:100A1000FC25831203133408303EFC250A30FC25E4
:100A20000D30FC254C30FC254530FC254430FC25A0
:100A30002030FC256630FC256130FC256930FC2522
:100A40006C30FC253A30FC252030FC252030FC257C
:100A50002030FC252030FC252030FC258312031398
:100A60003508303EFC250A30FC250D30FC2546308B
:100A7000FC256C30FC256930FC256330FC256B308F
:100A8000FC256530FC257230FC252030FC256630C5
:100A9000FC256130FC256930FC256C30FC253A30A2
:100AA000FC252030FC25831203133608303EFC253C
:100AB0000A30FC250D30FC250A30FC250D30FC25C4
:100AC0008312031308003308C1000830C500C201B7
:100AD000C301C401053042020318872505304302D3
:100AE00003188A250530440203188D25C503031019
:100AF000B30DC40D441A9025C30D431A9325C20D9E
:100B000003104508031D6A2D4108B3000800033097
:100B1000C20708000330C30708000330C4070800F9
:100B20004412031408004312031408008A30BE0064
:100B3000BA30BF000330C000BE0B9F2DBF0BA12DEC
:100B4000C00B9C2DA32D00000800C330BC000A3050
:100B5000BD00BC0BAC2DBD0BA92D08008312881560
:100B6000A525A525A5253330D225A525A5253230D7
:100B7000D225A525A5252830D225A525A5250C30CB
:100B8000D225A525A5250630D225A525A5250130E8
:100B9000D225A525A52508000130D2250800C030A2
:100BA000D22508000811BA00F03988008815A5255B
:100BB00088113A0EF03988008815A5258811A525D9
:100BC00008000815BB003B08F039043E8800881572
:100BD000A52588113B0EF039043E88008815A5250F
:100BE0008811080083160F30990098018312981716
:100BF0001816831698160800831299008316981CFD
:100C0000FF2D0800F900030E8301FA00C60B0B2E1E
:100C10002630C600B30A051DC80A7A0E8300F90EF5
:060C2000790E0B11090022
:0A0C2600831603139401183083169F
:100C30000313930008308312031394009416831651
:100C4000031311151119222E080083160313111412
:100C50001118282ED0308312031393008316031328
:100C60001419302E8316031383160313111B592EE8
:100C70008312031373088312031393008316031361
:100C80001419402E8316031383160313111B592EB8
:100C90008312031374088312031393008316031340
:100CA0001419502E8316031383160313111B592E88
:100CB0005A2E000083160313111511195D2E08001A
:100CC0008316031311141118632ED03083120313EB
:100CD00093008316031314196B2E831603138316C4
:100CE0000313111BA82E831203137308831203131B
:100CF00093008316031314197B2E83160313831694
:100D00000313111BA82E8316031391149118862E1A
:100D1000D1308312031393008316031314198E2EFC
:100D20008316031383160313111BA82E83160313B4
:100D300091159119992E831203131308831203132B
:100D4000F5008316031391161116111AA52EA92E5C
:100D500000008316031311151119AC2E080083121D
:100D60000313F600760E0F39303EF700831203139B
:100D700076080F39303EF80008008316031311146B
:100D80001118C02E1030831203139300831603131F
:100D90001419C82E8316031383160313111BE12E97
:100DA0008312031370088312031393008316031333
:100DB0001419D82E8316031383160313111BE12E67
:100DC000E12E8316031311151119E42E0800831662
:100DD000031311141118EA2E113083120313930018
:100DE000831603131419F22E8316031383160313A9
:100DF000111B0B2F8316031391159119FD2E8312CE
:100E00000313130883120313F000831603139116C0
:100E10001116111A092F83160313111511190E2F0C
:020E20000800C8
:02400E00723FFF
:00000001FF
