:020000040000FA
:02000000BE2818
:040002000034003492
:080008001D2D8207533454340E
:1000100041344E3444344234593400348207493434
:100020006E347334703465346334743469346E34CC
:10003000673420342E3420342E3420342E340034CF
:10004000820743346F346D3470346C3465347434E7
:100050006534003482074F3470346534723461344F
:10006000743469346F346E342034743469346D34CC
:1000700065343A3400348207203473346534633491
:100080006F346E3464347334003482073A3420346D
:100090004E346F34743420347034723465347334B5
:1000A00065346E347434003482073A34203450346A
:1000B000613473347334003482073A3420344C345E
:1000C0004534443420346634613469346C3400344B
:1000D00082073A34203446346C34693463346B34E8
:1000E0006534723420346634613469346C340034DD
:1000F000820754346F34743461346C342034633484
:1001000061346E3464346C34653473343A3420347E
:10011000003482074C3446343A34203400348207A9
:10012000463446343A342034003482073C346E344A
:100130006F346E3465343E340034820731342D34EC
:100140003434203474346F3420347334653465347B
:1001500020346C346F3467340034820753345434A1
:1001600041344E34443442345934203474346F347E
:1001700020346534783469347434003480308B0032
:1001800083168501F23086001830870088018312BB
:1001900085018601870188012C25C0240D25831245
:1001A000B901030139080520003A0319DA28F324BC
:1001B000B90AD228E1243230F3243030F324063057
:1001C00083120313F3007925831203137508C825DE
:1001D0007708AD00F3247808AE00F3242F30F32421
:1001E000053083120313F300792583120313750876
:1001F000C8257708AF00F3247808B000F3242F3027
:10020000F324043083120313F300792583120313BC
:100210007508C8257708B100F3247808B200F324E4
:100220001430E424023083120313F300792583127F
:1002300003137508C8257708B300F3247808B400C1
:10024000F3243A30F324013083120313F3007925A9
:10025000831203137508C8257708B500F3247808BE
:10026000B600F324C030E424861CDB28060E0F39C8
:10027000B7000C3A0319432937080E3A03198E299F
:1002800086184029DB282630C600A0018B16810184
:1002900083160313C73081008312DE24B9010301E2
:1002A00039080E20003A03195829F324B90A5029B5
:1002B000B024B0240130A1000130A2000230A3001C
:1002C0000230A4000130A5000030A6000130A700D4
:1002D0000330A8000130A9000230AA000130AB00B1
:1002E0000830AC008B12DE24B9010301390820204C
:1002F000003A03197E29F324B90A7629B024582339
:10030000B024B024D822B024B0240923861C862926
:10031000060E0F39002286188B298629DE24B901A2
:10032000030139089D20003A03199929F324B90AD9
:100330009129E124B90103013908AD20003A0319DC
:10034000A429F324B90A9C29861CA429060E0F3976
:10035000B700003A031DB929DE24B90103013908A9
:100360009520003A0319B729F324B90AAF29B0241C
:100370008E293708013A031DCA29DE24B901030179
:1003800039089520003A0319C829F324B90AC0296D
:10039000B0248E293708023A031DDB29DE24B90177
:1003A000030139089520003A0319D929F324B90A21
:1003B000D129B0248E293708043A031DEC29DE2404
:1003C000B901030139089520003A0319EA29F324F9
:1003D000B90AE229B0248E2937080D3A031DFD29F8
:1003E000DE24B901030139080520003A0319FB296D
:1003F000F324B90AF329E124DB288618FD29A4296E
:10040000B700003A031D0C2ADE240130303EBB0049
:10041000F32421089B2208003708013A031D182AFB
:10042000DE240230303EBB00F32422089B22080069
:100430003708023A031D242ADE240330303EBB0075
:10044000F32423089B2208003708043A031D302AAE
:10045000DE240430303EBB00F32424089B22080035
:100460003708053A031D3C2ADE240530303EBB0028
:10047000F32425089B2208003708063A031D482A62
:10048000DE240630303EBB00F32426089B22080001
:100490003708083A031D542ADE240730303EBB00DB
:1004A000F32427089B2208003708093A031D602A15
:1004B000DE240830303EBB00F32428089B220800CD
:1004C00037080A3A031D6C2ADE240930303EBB008F
:1004D000F32429089B2208003708033A031D722AD7
:1004E000D82208003708073A031D782A0923080094
:1004F00037080B3A031D7E2A5823080037080F3AA5
:10050000031D842A8323080037080D3A031D952A0A
:10051000DE24B901030139080520003A0319932AA2
:10052000F324B90A8B2AE124DB2837080C3A031D8F
:100530009A2A43290800B800003A031DAA2AB901E3
:10054000030139084520003A0319A92AF324B90AFE
:10055000A12A08003808013A031DB92AB90103018C
:1005600039085420003A0319B82AF324B90AB02AEA
:1005700008003808023A031DC82AB90103013908E6
:100580005C20003A0319C72AF324B90ABF2A0800DD
:100590003808033A031DD72AB90103013908682036
:1005A000003A0319D62AF324B90ACE2A0800080013
:1005B000DE24B901030139087820003A0319E32A3F
:1005C000F324B90ADB2A2C08303EBB00F324E124D3
:1005D000B901030139088920003A0319F22AF324EA
:1005E000B90AEA2A2A08303EBB00F3241430E42476
:1005F0001430E424B901030139088F20003A0319AB
:10060000042BF324B90AFC2A2B08303EBB00F32448
:100610000800DE24B901030139088920003A0319D2
:10062000142BF324B90A0C2BAA08031D222BB901A1
:10063000030139089520003A0319212BF324B90A44
:10064000192B242B02304023E124B901030139087E
:100650008F20003A03192F2BF324B90A272BAB085C
:10066000031D3D2BB901030139089520003A0319F8
:100670003C2BF324B90A342B080003304023080034
:10068000B8000030C70083132030840009304702CF
:100690000318572B840AC70A38080002031D462B8B
:1006A0004708303EBB00F3241430E424462B0800F6
:1006B000DE24B901030139082A20003A0319632B0B
:1006C000F324B90A5B2BE12420087D24C208031916
:1006D0006D2B4208303EBB00F324C3080319742B72
:1006E0004308303EBB00F3244408303EBB00F324F3
:1006F000B901030139083B20003A0319822BF32486
:10070000B90A7A2B0800073017250D301725543009
:1007100017256530172573301725743017252030BD
:10072000172561301725743017253A3017252030EA
:1007300017253230172530301725831203132D0863
:100740001725831203132E0817252F301725831220
:1007500003132F08172583120313300817252F3092
:100760001725831203133108172583120313320848
:1007700017252030172583120313330817258312FA
:100780000313340817253A3017258312031335084D
:10079000172583120313360817250A3017250D3045
:1007A000172554301725693017256D30172565300A
:1007B00017253A30172520301725203017252030EF
:1007C00017252030172583120313C2080319ED2BB8
:1007D000831203134208303E172583120313C30804
:1007E0000319F72B831203134308303E1725831296
:1007F00003134408303E1725203017257330172582
:1008000065301725633017250A3017250D30172559
:1008100043301725613017256E30172564301725B2
:100820006C30172565301725733017253A3017259A
:100830002030172520301725203017252030172588
:100840002030172520301725831203132C08303E43
:1008500017250A3017250D3017254C301725453040
:1008600017254430172520301725663017256130AD
:100870001725693017256C3017253A301725203099
:100880001725203017252030172520301725203038
:100890001725831203132A08303E17250A3017251F
:1008A0000D301725463017256C3017256930172570
:1008B000633017256B3017256530172572301725E3
:1008C0002030172566301725613017256930172528
:1008D0006C3017253A301725203017258312031363
:1008E0002B08303E17250A3017250D3017250A3002
:1008F00017250D301725831208002008C100083085
:10090000C500C201C301C401053042020318A1247D
:10091000053043020318A424053044020318A72419
:10092000C5030310A00DC40D441AAA24C30D431A15
:10093000AD24C20D03104508031D842C4108A000FE
:1009400008000330C20708000330C3070800033063
:10095000C4070800441203140800431203140800DB
:100960008830BE00BD30BF000330C000BE0BB92CC4
:10097000BF0BBB2CC00BB62CBD2C00000000080028
:10098000831288150425042504253330E424042526
:1009900004253230E424042504252830E4240425E9
:1009A00004250C30E424042504250630E424042521
:1009B00004250130E4240425042508000130E42442
:1009C0000800C030E42408000811BA00F03988009B
:1009D0008815042588113A0EF039880088150425F9
:1009E0008811042508000815BB003B08F039043EB7
:1009F00088008815042588113B0EF039043E8800D4
:100A000088150425881108001430BD00FF30BC0093
:100A1000BC0B082DBD0B062D080083160F30990066
:100A200098018312981718168316981608008312D7
:100A300099008316981C1A2D0800F900030E8301F3
:100A4000FA00C60B262D2630C600A00A7A0E8300B7
:080A5000F90E790E0B110900EB
:080A580083160313940118300A
:100A60008316031393000830831203139400941623
:100A700083160313111511193B2D08008316031358
:100A800011141118412DD0308312031393008316D3
:100A900003131419492D8316031383160313111B13
:100AA000722D8312031373088312031393008316AA
:100AB00003131419592D8316031383160313111BE3
:100AC000722D831203137408831203139300831689
:100AD00003131419692D8316031383160313111BB3
:100AE000722D732D00008316031311151119762D25
:100AF000080083160313111411187C2DD0308312B3
:100B000003139300831603131419842D8316031300
:100B100083160313111BC12D831203137308831251
:100B200003139300831603131419942D83160313D0
:100B300083160313111BC12D8316031391149118EF
:100B40009F2DD130831203139300831603131419BE
:100B5000A72D8316031383160313111BC12D8316B0
:100B6000031391159119B22D8312031313088312E5
:100B70000313F5008316031391161116111ABE2DD7
:100B8000C22D00008316031311151119C52D08007D
:100B900083120313F600760E0F39303EF7008312EE
:100BA000031376080F39303EF8000800831603134C
:100BB00011141118D92D10308312031393008316CA
:100BC00003131419E12D8316031383160313111B4A
:100BD000FA2D8312031370088312031393008316F4
:100BE00003131419F12D8316031383160313111B1A
:100BF000FA2DFA2D8316031311151119FD2D080076
:100C00008316031311141118032E113083120313CA
:100C100093008316031314190B2E831603138316E4
:100C20000313111B242E8316031391159119162EED
:100C300083120313130883120313F00083160313A4
:100C400091161116111A222E83160313111511195C
:040C5000272E080043
:02400E00723FFF
:00000001FF
