:020000040000FA
:02000000E728EF
:040002000034003492
:08000800312E820753345434F9
:1000100041344E3444344234593400348207493434
:100020006E347334703465346334743469346E34CC
:10003000673420342E3420342E3420342E340034CF
:10004000820743346F346D3470346C3465347434E7
:100050006534003482074F3470346534723461344F
:10006000743469346F346E342034743469346D34CC
:1000700065343A3400348207203473346534633491
:100080006F346E3464347334003482073A3420346D
:100090004E346F34743420347034723465347334B5
:1000A00065346E347434003482073A34203450346A
:1000B000613473347334003482073A3420344C345E
:1000C0004534443420346634613469346C3400344B
:1000D00082073A34203446346C34693463346B34E8
:1000E0006534723420346634613469346C340034DD
:1000F000820754346F34743461346C342034633484
:1001000061346E3464346C34653473343A3420347E
:10011000003482074C3446343A34203400348207A9
:10012000463446343A342034003482073C346E344A
:100130006F346E3465343E340034820731342D34EC
:100140003934203474346F34203473346534653476
:1001500020346C346F346734733400348207533482
:10016000543441344E344434423459342034743499
:100170006F34203465347834693474340034820741
:100180004534783470346F34723474343F3400340E
:1001900082074C344F3447345334203474346F3432
:1001A0002034723465347434753472346E340034EF
:1001B00082074F3470346534723461347434693476
:1001C0006F346E342034613474343A340034303057
:1001D0008B0083160313C73081008501F23086003F
:1001E0001830870088010330890007309F00831290
:1001F0000313850186018701880189016626D725B9
:100200001C26831203130130CA000F30CC00B90141
:10021000030139080520003A031911290B26B90AF0
:100220000929F92532300B2630300B26063083128F
:100230000313F300B326831203137508022777080C
:10024000A9000B267808AA000B262F300B260530B4
:1002500083120313F300B3268312031375080227D6
:100260007708AB000B267808AC000B262F300B2646
:10027000043083120313F300B326831203137508AB
:1002800002277708AD000B267808AE000B26143045
:10029000FC25023083120313F300B32683120313E9
:1002A000750802277708AF000B267808B0000B26E8
:1002B0003A300B26013083120313F300B326831266
:1002C0000313750802277708B1000B267808B200DF
:1002D0000B26C030FC25861C1229060E0F39B700EC
:1002E0000C3A03197A2937080E3A0319172A861887
:1002F000772912292630C600B30181018B17F62514
:10030000B901030139080E20003A03198A290B2686
:10031000B90A8229BF25BF25BF25BF25BF25BF2517
:10032000BF25BF25BF25BF25BF25BF25BF25BF25AD
:10033000BF25BF25BF25BF250130A0000130A1008A
:100340000230A2000130A3000130A4000130A5005A
:100350000130A6000330A7000130A8000130B5002D
:100360000130B6000930B4008B13F625B901030142
:1003700039082020003A0319C0290B26B90AB829E8
:10038000831203176F308D00831603178C130C1420
:100390008C18C829831203170E308D078316031794
:1003A0008C130C1555308D00AA308D008C140C1157
:1003B000831203170E300D020319E629831203136B
:1003C000CE25831203170F308D02C4298312031721
:1003D0008313373084000E308D00831603178C187A
:1003E000EF29831203178D03840300088C00831602
:1003F00003178C130C1555308D00AA308D008C140A
:100400000C11831203178D08031DED2983120313AA
:100410006924BF25BF25ED23BF25BF251B24861CCE
:100420000F2A060E0F3927238618142A0F2AF625BD
:10043000B901030139089D20003A0319222A0B262D
:10044000B90A1A2AF925B90103013908AE20003A80
:1004500003192D2A0B26B90A252A861C2D2A060ED9
:100460000F39B700003A031D3A2A831203170030F0
:100470008D00962A3708013A031D432A8312031779
:100480000E308D00962A3708023A031D4C2A83123B
:1004900003171C308D00962A3708043A031D552A8D
:1004A000831203172A308D00962A3708053A031D58
:1004B0005E2A8312031738308D00962A3708063AD1
:1004C000031D672A8312031746308D00962A3708CA
:1004D000083A031D702A8312031754308D00962AA0
:1004E0003708093A031D792A8312031762308D00F9
:1004F000962A37080A3A031D822A8312031770309E
:100500008D00962A37080D3A031D932AF625B90166
:10051000030139080520003A0319912A0B26B90A6C
:10052000892AF92512298618932A2D2A831329301E
:100530008400831603178C130C14831203170C0802
:100540008000840A8D0A37300402031D992A831221
:100550000313F625FF302902031DBA2AB90103014E
:1005600039089520003A0319B82A0B26B90AB02A8F
:10057000BF25172AB90103013908D820003A031909
:10058000C42A0B26B90ABC2AF92532300B26303092
:100590000B2629080B262A080B262F300B262B08A2
:1005A0000B262C080B262F300B262D080B262E0889
:1005B0000B2620300B262F080B2630080B263A304E
:1005C0000B2631080B2632080B26BF25BF256924D0
:1005D000BF25BF25ED23BF25BF25F625B9010301A2
:1005E0003908BF20003A0319F82A0B26B90AF02A65
:1005F000F925B90103013908C820003A0319032B72
:100600000B26B90AFB2A861C032B060E0F39B700EE
:1006100037080F3A031D0E2B9124172A37080E3A7C
:10062000031D132B172A37080D3A031D242BF6251B
:10063000B901030139080520003A0319222B0B26C2
:10064000B90A1A2BF92512298618242B032BB70077
:10065000003A031D312BF62531300B262008B0233C
:1006600008003708013A031D3B2BF62532300B26D4
:100670002108B02308003708023A031D452BF62550
:1006800033300B262208B02308003708043A031D34
:100690004F2BF62534300B262308B02308003708EB
:1006A000053A031D592BF62535300B262408B023B7
:1006B00008003708063A031D632BF62536300B2653
:1006C0002508B02308003708083A031D6D2BF625CE
:1006D00037300B262608B02308003708093A031DD7
:1006E000772BF62538300B262708B023080037086B
:1006F0000A3A031D812BF62539300B262808B02332
:1007000008003708033A031D872BED23080037083C
:10071000073A031D8D2B1B24080037080B3A031DD5
:10072000932B6924080037080F3A031D992B912455
:10073000080037080D3A031DAA2BF625B90103015D
:1007400039080520003A0319A82B0B26B90AA02B5B
:10075000F925122937080C3A031DAF2B7A29080016
:10076000B800003A031DBF2BB90103013908452029
:10077000003A0319BE2B0B26B90AB62B080038081D
:10078000013A031DCE2BB901030139085420003A68
:100790000319CD2B0B26B90AC52B08003808023ADD
:1007A000031DDD2BB901030139085C20003A031950
:1007B000DC2B0B26B90AD42B08003808033A031D9A
:1007C000EC2BB901030139086820003A0319EB2B1F
:1007D0000B26B90AE32B08000800F625B90103012E
:1007E00039087820003A0319F82B0B26B90AF02BA8
:1007F0003408303E0B26F925B90103013908892058
:10080000003A0319062C0B26B90AFE2B3508303E98
:100810000B261430FC251430FC25B90103013908DE
:100820008F20003A0319172C0B26B90A0F2C360813
:10083000303E0B260800F625B9010301390889204E
:10084000003A0319262C0B26B90A1E2CB508031DE5
:10085000342CB901030139089520003A0319332CCF
:100860000B26B90A2B2C362C02305224F925B9015B
:10087000030139088F20003A0319412C0B26B90ACD
:10088000392CB608031D4F2CB901030139089520F6
:10089000003A03194E2C0B26B90A462C08000330E7
:1008A00052240800B8000030C70083131F308400B2
:1008B000093047020318682C840AC70A3808000266
:1008C000031D582C4708303E0B261430FC25582CAD
:1008D0000800F625B901030139082A20003A031956
:1008E000742C0B26B90A6C2CF92533088C25C20808
:1008F00003197D2C4208303E0B26C3080319832CB4
:100900004308303E0B264408303E0B26B901030154
:1009100039083B20003A0319902C0B26B90A882C81
:100920000800073029260D30292654302926653045
:100930002926733029267430292620302926613053
:100940002926743029263A302926203029263230AB
:1009500029263030292683120313290829268312D9
:1009600003132A0829262F302926831203132B0864
:100970002926831203132C0829262F3029268312B7
:1009800003132D082926831203132E08292620304D
:100990002926831203132F082926831203133008F4
:1009A00029263A3029268312031331082926831277
:1009B0000313320829260A3029260D3029265430FF
:1009C0002926693029266D302926653029263A30B6
:1009D000292620302926203029262030292620309B
:1009E000292683120313C2080319FB2C8312031355
:1009F0004208303E292683120313C3080319052D2C
:100A0000831203134308303E29268312031344083C
:100A1000303E2926203029267330292665302926A4
:100A2000633029260A3029260D302926433029260D
:100A3000613029266E302926643029266C3029261B
:100A400065302926733029263A3029262030292678
:100A5000203029262030292620302926203029261A
:100A600020302926831203133408303E29260A3009
:100A700029260D3029264C30292645302926443098
:100A8000292620302926663029266130292669301A
:100A900029266C3029263A30292620302926203074
:100AA0002926203029262030292620302926831285
:100AB00003133508303E29260A3029260D30292611
:100AC000463029266C3029266930292663302926AC
:100AD0006B302926653029267230292620302926B8
:100AE0006630292661302926693029266C3029266E
:100AF0003A30292620302926831203133608303E47
:100B000029260A3029260D3029260A3029260D30BB
:100B100029268312031308003308C1000830C500DA
:100B2000C201C301C401053042020318B0250530DB
:100B300043020318B325053044020318B625C50344
:100B40000310B30DC40D441AB925C30D431ABC25B7
:100B5000C20D03104508031D932D4108B300080082
:100B60000330C20708000330C30708000330C4077E
:100B700008004412031408004312031408008A30CA
:100B8000BE00BA30BF000330C000BE0BC82DBF0B83
:100B9000CA2DC00BC52DCC2D00000800C330BC00F1
:100BA0000A30BD00BC0BD52DBD0BD22D0800831221
:100BB00003138815CE25CE25CE253330FC25CE2532
:100BC000CE253230FC25CE25CE252830FC25CE255D
:100BD000CE250C30FC25CE25CE250630FC25CE2595
:100BE000CE250130FC25CE25CE2508000130FC2580
:100BF0000800C030FC2508000811BA00F039880050
:100C00008815CE2588113A0EF03988008815CE2532
:100C10008811CE2508000815BB003B08F039043EBA
:100C200088008815CE2588113B0EF039043E8800D7
:100C30008815CE2588110800831603130F309900FC
:100C40009801831203139817181683160313981626
:100C5000080083120313990083160313981C2E2E89
:100C60000800F900030E8301FA008B1C592EF625AB
:100C7000B901030139089520003A0319422E0B26C9
:100C8000B90A3A2E861C422E060E0F390C3A031969
:100C90004C2E8618492E422EF625B901030139083B
:100CA0000E20003A0319572E0B26B90A4F2E8B102F
:100CB000612EC60B612E2630C600B30A8918C80AF9
:0C0CC0000B117A0E8300F90E790E09006A
:040CCC008316031375
:100CD0009401183083160313930008308312031312
:100CE000940094168316031311151119752E08001C
:100CF00083160313111411187B2ED03083120313A3
:100D00009300831603131419832E8316031383167B
:100D10000313111BAC2E83120313730883120313E6
:100D20009300831603131419932E8316031383164B
:100D30000313111BAC2E83120313740883120313C5
:100D40009300831603131419A32E8316031383161B
:100D50000313111BAC2EAD2E0000831603131115C7
:100D60001119B02E08008316031311141118B62E92
:100D7000D030831203139300831603131419BE2E6D
:100D80008316031383160313111BFB2E8312031305
:100D90007308831203139300831603131419CE2EC2
:100DA0008316031383160313111BFB2E83160313E1
:100DB00091149118D92ED130831203139300831606
:100DC00003131419E12E8316031383160313111B47
:100DD000FB2E8316031391159119EC2E8312031326
:100DE000130883120313F5008316031391161116CB
:100DF000111AF82EFC2E0000831603131115111979
:100E0000FF2E080083120313F600760E0F39303ED2
:100E1000F7008312031376080F39303EF8000800FC
:100E20008316031311141118132F10308312031398
:100E300093008316031314191B2F831603138316B1
:100E40000313111B342F831203137008831203132F
:100E500093008316031314192B2F83160313831681
:100E60000313111B342F342F83160313111511197B
:100E7000372F080083160313111411183D2F11305A
:100E8000831203139300831603131419452F83163B
:100E9000031383160313111B5E2F8316031391157F
:100EA0009119502F83120313130883120313F000B8
:100EB0008316031391161116111A5C2F8316031350
:080EC00011151119612F080042
:02400E00723FFF
:00000001FF
