:020000040000FA
:02000000E728EF
:040002000034003492
:08000800542E820753345434D6
:1000100041344E3444344234593400348207493434
:100020006E347334703465346334743469346E34CC
:10003000673420342E3420342E3420342E340034CF
:10004000820743346F346D3470346C3465347434E7
:100050006534003482074F3470346534723461344F
:10006000743469346F346E342034743469346D34CC
:1000700065343A3400348207203473346534633491
:100080006F346E3464347334003482073A3420346D
:100090004E346F34743420347034723465347334B5
:1000A00065346E347434003482073A34203450346A
:1000B000613473347334003482073A3420344C345E
:1000C0004534443420346634613469346C3400344B
:1000D00082073A34203446346C34693463346B34E8
:1000E0006534723420346634613469346C340034DD
:1000F000820754346F34743461346C342034633484
:1001000061346E3464346C34653473343A3420347E
:10011000003482074C3446343A34203400348207A9
:10012000463446343A342034003482073C346E344A
:100130006F346E3465343E340034820731342D34EC
:100140003934203474346F34203473346534653476
:1001500020346C346F346734733400348207533482
:10016000543441344E344434423459342034743499
:100170006F34203465347834693474340034820741
:100180004534783470346F34723474343F3400340E
:1001900082074C344F3447345334203474346F3432
:1001A0002034723465347434753472346E340034EF
:1001B00082074F3470346534723461347434693476
:1001C0006F346E342034613474343A340034203067
:1001D0008B0083160313C73081008501F23086003F
:1001E0001830870088010330890007309F00831290
:1001F0000313850186018701880189016526FA2597
:100200003F2683120313B901030139080520003A80
:1002100003190D292E26B90A05291C2632302E264F
:1002200030302E26063083120313F300B2268312D9
:100230000313750801277708A9002E267808AA005D
:100240002E262F302E26053083120313F300B226FC
:1002500083120313750801277708AB002E26780850
:10026000AC002E262F302E26043083120313F30009
:10027000B22683120313750801277708AD002E26D6
:100280007808AE002E2614301F2602308312031386
:10029000F300B22683120313750801277708AF0015
:1002A0002E267808B0002E263A302E2601308312F2
:1002B0000313F300B226831203137508012777088E
:1002C000B1002E267808B2002E26C0301F26861CCC
:1002D0000E29060E0F39B7000C3A03197629370894
:1002E0000E3A0319132A861873290E292630C400E2
:1002F000B30181018B171926B901030139080E20BA
:10030000003A031986292E26B90A7E29D925D9252E
:10031000D925D925D925D925D925D925D925D925ED
:10032000D925D925D925D925D925D925D925D925DD
:100330000130A0000130A1000230A2000130A30072
:100340000130A4000130A5000130A6000330A70051
:100350000130A8000130B5000130B6000930B4000A
:100360008B131926B901030139082020003A03191B
:10037000BC292E26B90AB429831203176F308D00C9
:10038000831603178C130C148C18C42983120317BB
:100390000E308D07831603178C130C1555308D0006
:1003A000AA308D008C140C11831203170E300D022D
:1003B0000319E22983120313E825831203170F3070
:1003C0008D02C029831203178313373084000E3047
:1003D0008D00831603178C18EB29831203178D03E6
:1003E000840300088C00831603178C130C155530FA
:1003F0008D00AA308D008C140C11831203178D0808
:10040000031DE929831603138324D925D92507243D
:10041000D925D9253524861C0B2A060E0F394123F0
:100420008618102A0B2A1926B901030139089D20C4
:10043000003A03191E2A2E26B90A162A1C26B901CB
:1004400003013908AE20003A0319292A2E26B90AD9
:10045000212A861C292A060E0F39B700003A031DEF
:10046000362A8312031700308D00922A3708013A8A
:10047000031D3F2A831203170E308D00922A37087E
:10048000023A031D482A831203171C308D00922A5A
:100490003708043A031D512A831203172A308D00AE
:1004A000922A3708053A031D5A2A83120317383057
:1004B0008D00922A3708063A031D632A8312031718
:1004C00046308D00922A3708083A031D6C2A8312A1
:1004D000031754308D00922A3708093A031D752AF4
:1004E0008312031762308D00922A37080A3A031DDF
:1004F0007E2A8312031770308D00922A37080D3A36
:10050000031D8F2A1926B901030139080520003A75
:1005100003198D2A2E26B90A852A1C260E2986182B
:100520008F2A292A831329308400831603178C13FA
:100530000C14831203170C088000840A8D0A3730CC
:100540000402031D952A831203131926FF30290282
:10055000031DB62AB901030139089520003A031991
:10056000B42A2E26B90AAC2AD925132AB9010301C7
:100570003908D820003A0319C02A2E26B90AB82A09
:100580001C2632302E2630302E2629082E262A0808
:100590002E262F302E262B082E262C082E262F30E6
:1005A0002E262D082E262E082E2620302E262F0809
:1005B0002E2630082E263A302E2631082E263208D6
:1005C0002E26D925D9258324D925D9250724D9250F
:1005D000D9251926B90103013908BF20003A0319AA
:1005E000F42A2E26B90AEC2A1C26B901030139087F
:1005F000C820003A0319FF2A2E26B90AF72A861CBA
:10060000FF2A060E0F39B70037080F3A031D0A2BD1
:10061000AB24132A37080E3A031D0F2B132A370871
:100620000D3A031D202B1926B901030139080520B5
:10063000003A03191E2B2E26B90A162B1C260E294A
:100640008618202BFF2A0530C80009308500F125C7
:1006500008308500F1250A308500F125023085003B
:10066000F12506308500F12504308500F12505309F
:100670008500F12501308500F125C80B252B85016A
:100680000800B700003A031D4B2B192631302E26E7
:100690002008CA2308003708013A031D552B1926E4
:1006A00032302E262108CA2308003708023A031DDB
:1006B0005F2B192633302E262208CA23080037085C
:1006C000043A031D692B192634302E262308CA2329
:1006D00008003708053A031D732B192635302E26DE
:1006E0002408CA2308003708063A031D7D2B192663
:1006F00036302E262508CA2308003708083A031D7D
:10070000872B192637302E262608CA2308003708DB
:10071000093A031D912B192638302E262708CA23A3
:10072000080037080A3A031D9B2B192639302E265C
:100730002808CA2308003708033A031DA12B072401
:1007400008003708073A031DA72B3524080037088F
:100750000B3A031DAD2B8324080037080F3A031D05
:10076000B32BAB24080037080D3A031DC42B192600
:10077000B901030139080520003A0319C22B2E26BE
:10078000B90ABA2B1C260E2937080C3A031DC92BAF
:1007900076290800B800003A031DD92BB9010301DE
:1007A00039084520003A0319D82B2E26B90AD02B38
:1007B00008003808013A031DE82BB9010301390884
:1007C0005420003A0319E72B2E26B90ADF2B080024
:1007D0003808023A031DF72BB901030139085C20E0
:1007E000003A0319F62B2E26B90AEE2B080038081A
:1007F000033A031D062CB901030139086820003AA9
:100800000319052C2E26B90AFD2B0800080019260D
:10081000B901030139087820003A0319122C2E2659
:10082000B90A0A2C3408303E2E261C26B9010301D1
:1008300039088920003A0319202C2E26B90A182CD1
:100840003508303E2E2614301F2614301F26B901DD
:10085000030139088F20003A0319312C2E26B90ADA
:10086000292C3608303E2E2608001926B90103012E
:1008700039088920003A0319402C2E26B90A382C51
:10088000B508031D4E2CB901030139089520003A23
:1008900003194D2C2E26B90A452C502C02306C24FD
:1008A0001C26B901030139088F20003A03195B2C7B
:1008B0002E26B90A532CB608031D692CB901030171
:1008C00039089520003A0319682C2E26B90A602CA5
:1008D000080003306C240800B8000030C500831302
:1008E0001F308400093045020318822C840AC50A8F
:1008F00038080002031D722C4508303E2E261430A5
:100900001F26722C08001926B901030139082A2074
:10091000003A03198E2C2E26B90A862C1C26330881
:10092000A625C0080319972C4008303E2E26C10882
:1009300003199D2C4108303E2E264208303E2E26BB
:10094000B901030139083B20003A0319AA2C2E26CD
:10095000B90AA22C080007304C260D304C26543022
:100960004C2665304C2673304C2674304C26203093
:100970004C2661304C2674304C263A304C262030C0
:100980004C2632304C2630304C2683120313290873
:100990004C26831203132A084C262F304C26831230
:1009A00003132B084C26831203132C084C262F30DC
:1009B0004C26831203132D084C26831203132E0892
:1009C0004C2620304C26831203132F084C2683120A
:1009D000031330084C263A304C2683120313310897
:1009E0004C268312031332084C260A304C260D3055
:1009F0004C2654304C2669304C266D304C266530E0
:100A00004C263A304C2620304C2620304C262030C4
:100A10004C2620304C2683120313C0080319152DD1
:100A2000831203134008303E4C2683120313C1087F
:100A300003191F2D831203134108303E4C268312E5
:100A400003134208303E4C2620304C2673304C268F
:100A500065304C2663304C260A304C260D304C262F
:100A600043304C2661304C266E304C2664304C2688
:100A70006C304C2665304C2673304C263A304C2670
:100A800020304C2620304C2620304C2620304C265E
:100A900020304C2620304C26831203133408303E7D
:100AA0004C260A304C260D304C264C304C26453016
:100AB0004C2644304C2620304C2666304C26613083
:100AC0004C2669304C266C304C263A304C2620306F
:100AD0004C2620304C2620304C2620304C2620300E
:100AE0004C26831203133508303E4C260A304C2620
:100AF0000D304C2646304C266C304C2669304C2646
:100B000063304C266B304C2665304C2672304C26B8
:100B100020304C2666304C2661304C2669304C26FD
:100B20006C304C263A304C2620304C26831203136E
:100B30003608303E4C260A304C260D304C260A3002
:100B40004C260D304C268312031308003308BF00D7
:100B50000830C300C001C101C201053040020318C2
:100B6000CA25053041020318CD250530420203187D
:100B7000D025C3030310B30DC20D421AD325C10DF6
:100B8000411AD625C00D03104308031DAD2D3F08A3
:100B9000B30008000330C00708000330C107080095
:100BA0000330C20708004212031408004112031464
:100BB00008008A30BC00BA30BD000330BE00BC0B58
:100BC000E22DBD0BE42DBE0BDF2DE62D000008004D
:100BD000C330BC000A30BE00BC0BEF2DBE0BEC2DA9
:100BE0000800F330BC002F30BE00BC0BF82DBE0B4C
:100BF000F52D0800831203138815E825E825E8255C
:100C000033301F26E825E82532301F26E825E82561
:100C100028301F26E825E8250C301F26E825E82582
:100C200006301F26E825E82501301F26E825E8259F
:100C3000080001301F260800C0301F2608000811D8
:100C4000BA00F03988008815E82588113A0EF03985
:100C500088008815E8258811E82508000815BB00DC
:100C60003B08F039043E88008815E82588113B0EC2
:100C7000F039043E88008815E8258811080083169D
:100C800003130F3099009801831203139817181655
:100C90008316031398160800831203139900831612
:100CA0000313981C512E0800F900030E8301FA006B
:100CB000C40B602E2630C400B30A8918C60A0B1173
:0A0CC0007A0E8300F90E790E090088
:060CCA00831603139401E0
:100CD0001830831603139300083083120313940013
:100CE00094168316031311151119742E0800831618
:100CF0000313111411187A2ED030831203139300AA
:100D0000831603131419822E8316031383160313F9
:100D1000111BAB2E8312031373088312031393006A
:100D2000831603131419922E8316031383160313C9
:100D3000111BAB2E83120313740883120313930049
:100D4000831603131419A22E831603138316031399
:100D5000111BAB2EAC2E00008316031311151119B5
:100D6000AF2E08008316031311141118B52ED030BE
:100D7000831203139300831603131419BD2E8316D5
:100D8000031383160313111BFA2E83120313730824
:100D9000831203139300831603131419CD2E8316A5
:100DA000031383160313111BFA2E831603139114D6
:100DB0009118D82ED1308312031393008316031396
:100DC0001419E02E8316031383160313111BFA2E36
:100DD0008316031391159119EB2E83120313130835
:100DE00083120313F5008316031391161116111ABB
:100DF000F72EFB2E00008316031311151119FE2E7A
:100E0000080083120313F600760E0F39303EF70008
:100E10008312031376080F39303EF800080083165A
:100E2000031311141118122F10308312031393009F
:100E30008316031314191A2F83160313831603132F
:100E4000111B332F831203137008831203139300B3
:100E50008316031314192A2F8316031383160313FF
:100E6000111B332F332F8316031311151119362F2E
:100E7000080083160313111411183C2F113083122C
:100E800003139300831603131419442F83160313BB
:100E900083160313111B5D2F8316031391159119EC
:100EA0004F2F83120313130883120313F0008316CA
:100EB000031391161116111A5B2F831603131115C4
:060EC0001119602F08006B
:02400E00723FFF
:00000001FF
