:020000040000FA
:02000000E728EF
:040002000034003492
:08000800ED2E8207533454343D
:1000100041344E3444344234593400348207493434
:100020006E347334703465346334743469346E34CC
:10003000673420342E3420342E3420342E340034CF
:10004000820743346F346D3470346C3465347434E7
:100050006534003482074F3470346534723461344F
:10006000743469346F346E342034743469346D34CC
:1000700065343A3400348207203473346534633491
:100080006F346E3464347334003482073A3420346D
:100090004E346F34743420347034723465347334B5
:1000A00065346E347434003482073A34203450346A
:1000B000613473347334003482073A3420344C345E
:1000C0004534443420346634613469346C3400344B
:1000D00082073A34203446346C34693463346B34E8
:1000E0006534723420346634613469346C340034DD
:1000F000820754346F34743461346C342034633484
:1001000061346E3464346C34653473343A3420347E
:10011000003482074C3446343A34203400348207A9
:10012000463446343A342034003482073C346E344A
:100130006F346E3465343E340034820731342D34EC
:100140003934203474346F34203473346534653476
:1001500020346C346F346734733400348207533482
:10016000543441344E344434423459342034743499
:100170006F34203465347834693474340034820741
:100180004534783470346F34723474343F3400340E
:1001900082074C344F3447345334203474346F3432
:1001A0002034723465347434753472346E340034EF
:1001B00082074F3470346534723461347434693476
:1001C0006F346E342034613474343A340034203067
:1001D0008B0083160313C63081008501F230860040
:1001E0001830870088010330890007309F00831290
:1001F00085018601870188018901FE269926DD2671
:100200008312B901030139080520003A03190B29AB
:10021000CC26B90A0329BA263230CC263030CC2677
:10022000063083120313F3004B2783120313750860
:100230009A277708A900CC267808AA00CC262F3068
:10024000CC26053083120313F3004B2783120313CC
:1002500075089A277708AB00CC267808AC00CC2626
:100260002F30CC26043083120313F3004B27831264
:10027000031375089A277708AD00CC267808AE00DE
:10028000CC261430BD26023083120313F3004B2713
:100290008312031375089A277708AF00CC267808D5
:1002A000B000CC263A30CC26013083120313F30081
:1002B0004B278312031375089A277708B100CC26C1
:1002C0007808B200CC26C030BD26861C0C29060E4C
:1002D0000F39B7000C3A0319782937080E3A031979
:1002E000342A37080A3A03194423861875290C2939
:1002F000B601B401B501CA012630C400B3018101C1
:100300008B17B726B901030139080E20003A0319EB
:100310008C29CC26B90A8429C60183131F30840096
:10032000093046020319CE290530C9009123C60AB7
:10033000840A0918B329B7230918B329C623091851
:10034000B329B7230918B329C6230918B3290030E4
:100350008000093046020319CE290330C9009123D9
:10036000C60A840A9929B40AC7017826782678260D
:1003700078264708C800023048020318C329023013
:100380008000B50A9029973048020318CA29013025
:100390008000902903308000B60A90290530C900FA
:1003A00091238B13B726B901030139082020003AA5
:1003B0000319DD29CC26B90AD529831203176F301A
:1003C0008D00831603178C130C148C18E5298312E7
:1003D00003170E308D07831603178C130C15553039
:1003E0008D00AA308D008C140C11831203170E306F
:1003F0000D020319032A831203138726831203179E
:100400000F308D02E12983120317831337308400E4
:100410000E308D00831603178C180C2A83120317D5
:100420008D03840300088C00831603178C130C15AE
:1004300055308D00AA308D008C140C1183120317D7
:100440008D08031D0A2A8312031322257826782695
:100450009B2478267826C924861C2C2A060E0F3960
:10046000D5238618312A2C2AB726B9010301390869
:100470009D20003A03193F2ACC26B90A372ABA260A
:10048000B90103013908AE20003A03194A2ACC26E3
:10049000B90A422A861C4A2A060E0F39B700003ACA
:1004A000031D572A8312031700308D00B32A370823
:1004B000013A031D602A831203170E308D00B32A00
:1004C0003708023A031D692A831203171C308D0076
:1004D000B32A3708043A031D722A831203172A30FD
:1004E0008D00B32A3708053A031D7B2A83120317B0
:1004F00038308D00B32A3708063A031D842A831248
:10050000031746308D00B32A3708083A031D8D2A99
:100510008312031754308D00B32A3708093A031D9C
:10052000962A8312031762308D00B32A37080A3ADD
:10053000031D9F2A8312031770308D00B32A3708DA
:100540000D3A031DB02AB726B90103013908052069
:10055000003A0319AE2ACC26B90AA62ABA260C29D3
:100560008618B02A4A2A8313293084008316031779
:100570008C130C14831203170C088000840A8D0A54
:1005800037300402031DB62A83120313B726FF3047
:100590002902031DD72AB901030139089520003A21
:1005A0000319D52ACC26B90ACD2A7826342AB901CE
:1005B00003013908D820003A0319E12ACC26B90AE8
:1005C000D92ABA263230CC263030CC262908CC267F
:1005D0002A08CC262F30CC262B08CC262C08CC265B
:1005E0002F30CC262D08CC262E08CC262030CC2629
:1005F0002F08CC263008CC263A30CC263108CC2621
:100600003208CC26782678262225782678269B2440
:1006100078267826B726B90103013908BF20003AA9
:100620000319152BCC26B90A0D2BBA26B9010301E3
:100630003908C820003A0319202BCC26B90A182BF8
:10064000861C202B060E0F39B70037080F3A031D02
:100650002B2B4A25342A37080E3A031D302B342A17
:1006600037080D3A031D412BB726B901030139089C
:100670000520003A03193F2BCC26B90A372BBA269E
:100680000C298618412B202BB726C70181018B1717
:1006900078267826782678264708B3008B134526D7
:1006A0000230330203185F2BB901030139085C20C3
:1006B000003A03195E2BCC26B90A562B782B9730BB
:1006C000330203186E2BB901030139085420003A94
:1006D00003196D2BCC26B90A652B782BB9010301C0
:1006E00039086820003A0319782BCC26B90A702BF8
:1006F000BA264008303ECC264108303ECC2642087F
:10070000303ECC2678267826B726B9010301390871
:100710000520003A03198F2BCC26B90A872BBA265D
:1007200008004A18A12B0930850090260830850062
:1007300090260A30850090260230850090264A18BF
:10074000AF2B0630850090260430850090260530BA
:10075000850090260130850090264A18932BC90BFE
:10076000B22BB52B4A18A12B932B85010800093019
:10077000850090260830850090260A308500902656
:1007800002308500902685014A1408000630850055
:100790009026043085009026053085009026013093
:1007A0008500902685014A100800B700003A031D15
:1007B000DF2BB7263130CC2620085E24080037080E
:1007C000013A031DE92BB7263230CC2621085E24DE
:1007D00008003708023A031DF32BB7263330CC2626
:1007E00022085E2408003708043A031DFD2BB726B3
:1007F0003430CC2623085E2408003708053A031D50
:10080000072CB7263530CC2624085E24080037088C
:10081000063A031D112CB7263630CC2625085E2457
:1008200008003708083A031D1B2CB7263730CC26A2
:1008300026085E2408003708093A031D252CB72630
:100840003830CC2627085E24080037080A3A031DF2
:100850002F2CB7263930CC2628085E24080037080C
:10086000033A031D352C9B2408003708073A031D63
:100870003B2CC924080037080B3A031D412C2225C4
:10088000080037080F3A031D472C4A25080037088F
:100890000D3A031D582CB726B9010301390805206C
:1008A000003A0319562CCC26B90A4E2CBA260C292C
:1008B00037080C3A031D5D2C78290800B800003A6F
:1008C000031D6D2CB901030139084520003A0319B5
:1008D0006C2CCC26B90A642C08003808013A031D98
:1008E0007C2CB901030139085420003A03197B2CF0
:1008F000CC26B90A732C08003808023A031D8B2C49
:10090000B901030139085C20003A03198A2CCC266E
:10091000B90A822C08003808033A031D9A2CB90141
:10092000030139086820003A0319992CCC26B90A2A
:10093000912C08000800B726B90103013908782076
:10094000003A0319A62CCC26B90A9E2C3408303E56
:10095000CC26BA26B901030139088920003A0319C7
:10096000B42CCC26B90AAC2C3508303ECC26143039
:10097000BD261430BD26B901030139088F20003A85
:100980000319C52CCC26B90ABD2C3608303ECC261E
:100990000800B726C5010730350203184514073093
:1009A000360203184514B901030139088920003AB9
:1009B0000319DD2CCC26B90AD52CB508031DEB2C68
:1009C000B901030139089520003A0319EA2CCC2615
:1009D000B90AE22CED2C02300925BA26B90103012F
:1009E00039088F20003A0319F82CCC26B90AF02CCC
:1009F000B608031D062DB901030139089520003AF8
:100A00000319052DCC26B90AFD2C08000330092551
:100A10000800B8000030C60083131F30840009307E
:100A200046020318212D840AC60A38080002031D55
:100A30000F2D4608303ECC264518202D1430BD26FB
:100A40000F2D0800B726B901030139082A20003A02
:100A500003192D2DCC26B90A252DBA263308452693
:100A6000C0080319362D4008303ECC26C1080319B2
:100A70003C2D4108303ECC264208303ECC26B90100
:100A8000030139083B20003A0319492DCC26B90A45
:100A9000412D08000730E7260D30E7265430E726C1
:100AA0006530E7267330E7267430E7262030E726E6
:100AB0006130E7267430E7263A30E7262030E72613
:100AC0003230E7263030E726831203132908E72661
:100AD000831203132A08E7262F30E7268312031315
:100AE0002B08E726831203132C08E7262F30E7266E
:100AF000831203132D08E726831203132E08E7261B
:100B00002030E726831203132F08E72683120313EE
:100B10003008E7263A30E726831203133108E72628
:100B2000831203133208E7260A30E7260D30E72642
:100B30005430E7266930E7266D30E7266530E72632
:100B40003A30E7262030E7262030E7262030E72617
:100B50002030E72683120313C0080319B42D831233
:100B600003134008303EE72683120313C10803191C
:100B7000BE2D831203134108303EE7268312031370
:100B80004208303EE7262030E7267330E7266530FE
:100B9000E7266330E7260A30E7260D30E7264330A4
:100BA000E7266130E7266E30E7266430E7266C30B2
:100BB000E7266530E7267330E7263A30E72620300F
:100BC000E7262030E7262030E7262030E7262030B1
:100BD000E7262030E726831203133408303EE72649
:100BE0000A30E7260D30E7264C30E7264530E72669
:100BF0004430E7262030E7266630E7266130E726D6
:100C00006930E7266C30E7263A30E7262030E726C1
:100C10002030E7262030E7262030E7262030E72660
:100C2000831203133508303EE7260A30E7260D30DD
:100C3000E7264630E7266C30E7266930E726633042
:100C4000E7266B30E7266530E7267230E72620304E
:100C5000E7266630E7266130E7266930E7266C3004
:100C6000E7263A30E7262030E726831203133608BA
:100C7000303EE7260A30E7260D30E7260A30E72621
:100C80000D30E7268312031308003308BF00083035
:100C9000C300C001C101C20105304002031869262A
:100CA0000530410203186C260530420203186F26F6
:100CB000C3030310B30DC20D421A7226C10D411AAF
:100CC0007526C00D03104308031D4C2E3F08B300CA
:100CD00008000330C00708000330C10708000330D4
:100CE000C20708004212031408004112031408004E
:100CF0008A30BC00BA30BD000330BE00BC0B812E70
:100D0000BD0B832EBE0B7E2E852E00000800C33047
:100D1000BC000A30BE00BC0B8E2EBE0B8B2E080012
:100D2000F330BC002F30BE00BC0B972EBE0B942EB0
:100D30000800831288158726872687263330BD262C
:100D4000872687263230BD26872687262830BD266F
:100D5000872687260C30BD26872687260630BD26A7
:100D6000872687260130BD26872687260800013082
:100D7000BD260800C030BD2608000811BA00F039B1
:100D800088008815872688113A0EF0398800881562
:100D900087268811872608000815BB003B08F03914
:100DA000043E88008815872688113B0EF039043EE2
:100DB0008800881587268811080083160F3099004F
:100DC0009801831298171816831698160800831234
:100DD00099008316981CEA2E0800F900030E83017F
:100DE000FA00C40BF62E4C30C400B30A8918C70AA7
:0C0DF0007A0E8300F90E790E0B11090039
:040DFC008316031344
:100E000094011830831603139300083083120313E0
:100E10009400941683160313111511190D2F080051
:100E20008316031311141118132FD03083120313D8
:100E300093008316031314191B2F831603138316B1
:100E40000313111B442F831203137308831203131C
:100E500093008316031314192B2F83160313831681
:100E60000313111B442F83120313740883120313FB
:100E700093008316031314193B2F83160313831651
:100E80000313111B442F452F000083160313111564
:100E90001119482F080083160313111411184E2F2F
:100EA000D030831203139300831603131419562FA3
:100EB0008316031383160313111B932F831203133B
:100EC0007308831203139300831603131419662FF8
:100ED0008316031383160313111B932F8316031317
:100EE00091149118712FD13083120313930083163C
:100EF00003131419792F8316031383160313111B7D
:100F0000932F8316031391159119842F83120313C2
:100F1000130883120313F500831603139116111699
:100F2000111A902F942F0000831603131115111915
:100F3000972F080083120313F600760E0F39303E08
:100F4000F7008312031376080F39303EF8000800CB
:100F50008316031311141118AB2F103083120313CF
:100F60009300831603131419B32F831603138316E8
:100F70000313111BCC2F8312031370088312031366
:100F80009300831603131419C32F831603138316B8
:100F90000313111BCC2FCC2F83160313111511191A
:100FA000CF2F08008316031311141118D52F1130F9
:100FB000831203139300831603131419DD2F831672
:100FC000031383160313111BF62F831603139115B6
:100FD0009119E82F83120313130883120313F000EF
:100FE0008316031391161116111AF42F8316031387
:080FF00011151119F92F080079
:02400E00723FFF
:00000001FF
