:020000040000FA
:02000000E728EF
:040002000034003492
:080008007A2E820753345434B0
:1000100041344E3444344234593400348207493434
:100020006E347334703465346334743469346E34CC
:10003000673420342E3420342E3420342E340034CF
:10004000820743346F346D3470346C3465347434E7
:100050006534003482074F3470346534723461344F
:10006000743469346F346E342034743469346D34CC
:1000700065343A3400348207203473346534633491
:100080006F346E3464347334003482073A3420346D
:100090004E346F34743420347034723465347334B5
:1000A00065346E347434003482073A34203450346A
:1000B000613473347334003482073A3420344C345E
:1000C0004534443420346634613469346C3400344B
:1000D00082073A34203446346C34693463346B34E8
:1000E0006534723420346634613469346C340034DD
:1000F000820754346F34743461346C342034633484
:1001000061346E3464346C34653473343A3420347E
:10011000003482074C3446343A34203400348207A9
:10012000463446343A342034003482073C346E344A
:100130006F346E3465343E340034820731342D34EC
:100140003934203474346F34203473346534653476
:1001500020346C346F346734733400348207533482
:10016000543441344E344434423459342034743499
:100170006F34203465347834693474340034820741
:100180004534783470346F34723474343F3400340E
:1001900082074C344F3447345334203474346F3432
:1001A0002034723465347434753472346E340034EF
:1001B00082074F3470346534723461347434693476
:1001C0006F346E342034613474343A340034203067
:1001D0008B0083160313C73081008501F23086003F
:1001E0001830870088010330890007309F00831290
:1001F0000313850186018701880189018B26262644
:100200006A26831203130130CA000F30CC00B901F3
:10021000030139080520003A031911295926B90AA2
:1002200009294726323059263030592606308312A4
:100230000313F300D82683120313750827277708C2
:10024000A90059267808AA0059262F3059260530CA
:1002500083120313F300D82683120313750827278C
:100260007708AB0059267808AC0059262F3059265C
:10027000043083120313F300D82683120313750886
:1002800027277708AD0059267808AE005926143084
:100290004A26023083120313F300D8268312031375
:1002A000750827277708AF0059267808B000592627
:1002B0003A305926013083120313F300D8268312F3
:1002C0000313750827277708B10059267808B2006C
:1002D0005926C0304A26861C1229060E0F39B7004F
:1002E0000C3A03197A2937080E3A0319182A861886
:1002F000772912292630C600B30181018B174426C5
:10030000B901030139080E20003A03198A29592638
:10031000B90A8229C70183131F3084000A304702BB
:100320000319B5292823C70A840A091C9A29003011
:1003300080008E29B40AC8010E260E260E260E262F
:100340004808C900073049020318AA290230800072
:10035000B50A8E29453049020318B12901308000C1
:100360008E2903308000B60A8E298B134426B901EA
:10037000030139082020003A0319C1295926B90A76
:10038000B929831203176F308D00831603178C135E
:100390000C148C18C929831203170E308D0783168D
:1003A00003178C130C1555308D00AA308D008C145A
:1003B0000C11831203170E300D020319E729831263
:1003C00003131D26831203170F308D02C5298312D4
:1003D00003178313373084000E308D008316031704
:1003E0008C18F029831203178D03840300088C00F6
:1003F000831603178C130C1555308D00AA308D0011
:100400008C140C11831203178D08031DEE2983121F
:100410000313B8240E260E263C240E260E266A242C
:10042000861C102A060E0F3976238618152A102AE4
:100430004426B901030139089D20003A0319232AF3
:100440005926B90A1B2A4726B90103013908AE20EB
:10045000003A03192E2A5926B90A262A861C2E2A62
:10046000060E0F39B700003A031D3B2A831203170B
:1004700000308D00972A3708013A031D442A831261
:1004800003170E308D00972A3708023A031D4D2AB4
:10049000831203171C308D00972A3708043A031D76
:1004A000562A831203172A308D00972A3708053AF7
:1004B000031D5F2A8312031738308D00972A3708EF
:1004C000063A031D682A8312031746308D00972AC7
:1004D0003708083A031D712A8312031754308D0020
:1004E000972A3708093A031D7A2A831203176230C4
:1004F0008D00972A37080A3A031D832A83120317AF
:1005000070308D00972A37080D3A031D942A44262F
:10051000B901030139080520003A0319922A592626
:10052000B90A8A2A472612298618942A2E2A831362
:1005300029308400831603178C130C1483120317BD
:100540000C088000840A8D0A37300402031D9A2AA1
:10055000831203134426FF302902031DBB2AB9016D
:10056000030139089520003A0319B92A5926B90A16
:10057000B12A0E26182AB90103013908D820003AF9
:100580000319C52A5926B90ABD2A472632305926E9
:1005900030305926290859262A0859262F3059263D
:1005A0002B0859262C0859262F3059262D08592654
:1005B0002E085926203059262F085926300859264A
:1005C0003A30592631085926320859260E260E2669
:1005D000B8240E260E263C240E260E264426B901EB
:1005E00003013908BF20003A0319F92A5926B90A2C
:1005F000F12A4726B90103013908C820003A031936
:10060000042B5926B90AFC2A861C042B060E0F3926
:10061000B70037080F3A031D0F2BE024182A3708BC
:100620000E3A031D142B182A37080D3A031D252BEB
:100630004426B901030139080520003A0319232B88
:100640005926B90A1B2B472612298618252B042B5D
:10065000CB0101304A020319392B02304A02031937
:10066000462B03304A020319532B04304A02031964
:10067000602B4C084B02031D402B0130CA006E2B2F
:10068000093085001D261D260E26CB0A4C084B027C
:10069000031D4D2B0230CA006E2B0A3085001D262B
:1006A0001D260E26CB0A4C084B02031D5A2B033085
:1006B000CA006E2B063085001D261D260E26CB0A8D
:1006C0004C084B02031D672B0430CA006E2B05300B
:1006D00085001D261D260E26CB0A392B10304C0214
:1006E000031D742BCC030800CC0A0800B700003AA5
:1006F000031D802B4426313059262008FF23080093
:100700003708013A031D8A2B442632305926210826
:10071000FF2308003708023A031D942B4426333088
:1007200059262208FF2308003708043A031D9E2B90
:100730004426343059262308FF2308003708053A99
:10074000031DA82B4426353059262408FF23080012
:100750003708063A031DB22B4426363059262508A1
:10076000FF2308003708083A031DBC2B4426373006
:1007700059262608FF2308003708093A031DC62B0F
:100780004426383059262708FF23080037080A3A3C
:10079000031DD02B4426393059262808FF23080092
:1007A0003708033A031DD62B3C2408003708073AC4
:1007B000031DDC2B6A24080037080B3A031DE22BCB
:1007C000B824080037080F3A031DE82BE02408007E
:1007D00037080D3A031DF92B4426B90103013908E6
:1007E0000520003A0319F72B5926B90AEF2B4726A3
:1007F000122937080C3A031DFE2B7A290800B8008D
:10080000003A031D0E2CB901030139084520003AB6
:1008100003190D2C5926B90A052C08003808013A8D
:10082000031D1D2CB901030139085420003A031996
:100830001C2C5926B90A142C08003808023A031D4A
:100840002C2CB901030139085C20003A03192B2C28
:100850005926B90A232C08003808033A031D3B2CFB
:10086000B901030139086820003A03193A2C5926C6
:10087000B90A322C080008004426B90103013908DE
:100880007820003A0319472C5926B90A3F2C34081E
:10089000303E59264726B901030139088920003A1C
:1008A0000319552C5926B90A4D2C3508303E5926C6
:1008B00014304A2614304A26B901030139088F2022
:1008C000003A0319662C5926B90A5E2C3608303EC8
:1008D000592608004426B901030139088920003A45
:1008E0000319752C5926B90A6D2CB508031D832CE4
:1008F000B901030139089520003A0319822C5926C1
:10090000B90A7A2C852C0230A1244726B9010301AB
:1009100039088F20003A0319902C5926B90A882CDF
:10092000B608031D9E2CB901030139089520003A31
:1009300003199D2C5926B90A952C08000330A124CF
:100940000800B8000030C70083131F30840009304E
:1009500047020318B72C840AC70A38080002031D8F
:10096000A72C4708303E592614304A26A72C0800E9
:100970004426B901030139082A20003A0319C32C7F
:100980005926B90ABB2C47263308DB25C2080319B0
:10099000CC2C4208303E5926C3080319D22C4308F8
:1009A000303E59264408303E5926B9010301390822
:1009B0003B20003A0319DF2C5926B90AD72C08002E
:1009C000073074260D307426543074266530742632
:1009D0007330742674307426203074266130742687
:1009E000743074263A3074262030742632307426DF
:1009F00030307426831203132908742683120313DC
:100A00002A0874262F307426831203132B087426A9
:100A1000831203132C0874262F30742683120313B9
:100A20002D087426831203132E0874262030742692
:100A3000831203132F0874268312031330087426BD
:100A40003A30742683120313310874268312031379
:100A5000320874260A3074260D30742654307426F9
:100A6000693074266D307426653074263A307426E9
:100A700020307426203074262030742620307426CE
:100A800083120313C20803194A2D83120313420869
:100A9000303E742683120313C3080319542D8312A6
:100AA00003134308303E7426831203134408303E78
:100AB00074262030742673307426653074266330B3
:100AC00074260A3074260D30742643307426613043
:100AD00074266E307426643074266C30742665304B
:100AE0007426733074263A307426203074262030F1
:100AF000742620307426203074262030742620304E
:100B00007426831203133408303E74260A30742688
:100B10000D3074264C3074264530742644307426CB
:100B2000203074266630742661307426693074264D
:100B30006C3074263A3074262030742620307426A7
:100B4000203074262030742620307426831203133C
:100B50003508303E74260A3074260D30742646302F
:100B600074266C30742669307426633074266B30BA
:100B700074266530742672307426203074266630F0
:100B8000742661307426693074266C3074263A30CD
:100B9000742620307426831203133608303E7426E0
:100BA0000A3074260D3074260A3074260D307426EF
:100BB0008312031308003308C1000830C500C201C6
:100BC000C301C401053042020318FF25053043026A
:100BD000031802260530440203180526C503031036
:100BE000B30DC40D441A0826C30D431A0B26C20DBB
:100BF00003104508031DE22D4108B300080003302F
:100C0000C20708000330C30708000330C407080008
:100C10004412031408004312031408008A30BE0073
:100C2000BA30BF000330C000BE0B172EBF0B192E09
:100C3000C00B142E1B2E00000800C330BC000A306D
:100C4000BD00BC0B242EBD0B212E0800831288157D
:100C50001D261D261D2633304A261D261D26323010
:100C60004A261D261D2628304A261D261D260C3004
:100C70004A261D261D2606304A261D261D26013021
:100C80004A261D261D26080001304A260800C030CD
:100C90004A2608000811BA00F039880088151D2678
:100CA00088113A0EF039880088151D2688111D26F6
:100CB00008000815BB003B08F039043E8800881581
:100CC0001D2688113B0EF039043E880088151D262C
:100CD0008811080083160F30990098018312981725
:100CE0001816831698160800831299008316981C0C
:100CF000772E0800F900030E8301FA00C60B832E3D
:100D00002630C600B30A8918C80A7A0E8300F90E85
:060D1000790E0B11090031
:0A0D160083160313940118308316AE
:100D20000313930008308312031394009416831660
:100D30000313111511199A2E0800831603131114A9
:100D40001118A02ED03083120313930083160313BF
:100D50001419A82E8316031383160313111BD12E07
:100D60008312031373088312031393008316031370
:100D70001419B82E8316031383160313111BD12ED7
:100D8000831203137408831203139300831603134F
:100D90001419C82E8316031383160313111BD12EA7
:100DA000D22E00008316031311151119D52E080039
:100DB0008316031311141118DB2ED0308312031382
:100DC0009300831603131419E32E8316031383165B
:100DD0000313111B202F83120313730883120313B1
:100DE0009300831603131419F32E8316031383162B
:100DF0000313111B202F8316031391149118FE2E39
:100E0000D130831203139300831603131419062F92
:100E10008316031383160313111B202F831603134A
:100E200091159119112F83120313130883120313C1
:100E3000F5008316031391161116111A1D2F212F79
:100E400000008316031311151119242F08008312B3
:100E50000313F600760E0F39303EF70083120313AA
:100E600076080F39303EF80008008316031311147A
:100E70001118382F103083120313930083160313B5
:100E80001419402F8316031383160313111B592FB4
:100E90008312031370088312031393008316031342
:100EA0001419502F8316031383160313111B592F84
:100EB000592F83160313111511195C2F080083167F
:100EC000031311141118622F1130831203139300AE
:100ED0008316031314196A2F83160313831603133F
:100EE000111B832F8316031391159119752F8312EC
:100EF0000313130883120313F000831603139116D0
:100F00001116111A812F8316031311151119862F2B
:020F10000800D7
:02400E00723FFF
:00000001FF
