:020000040000FA
:020000000528D1
:040002000034003492
:0800080009008B0183160313AC
:1000100089018312031389010E200D280911212063
:10002000212021202120033089003A203A203A2043
:100030003A20013089003A203A203A203A20091526
:100040000800033089003A203A203A203A20013053
:1000500089003A203A203A203A20003089003A209C
:100060003A203A203A20023089003A203A203A20B9
:100070003A200800C330F0000A30F100F00B4128AC
:06008000F10B3E28080010
:02400E00723FFF
:00000001FF
