:020000040000FA
:020000000528D1
:040002000034003492
:0800080009008B0183160313AC
:100010008501F2308600880107309F0083120313A8
:1000200085018601880190200130F5000F30F7002E
:10003000861C1828060E0F390C3A03192220861840
:100040001F281828AE207708303EC9207508303E9A
:10005000C920F6010130750203193A2802307502F1
:10006000031945280330750203195028043075021E
:1000700003195B2877087602031D41280130F5003B
:100080006728093085006F20F60A77087602031D7D
:100090004C280230F50067280A3085006F20F60AE8
:1000A00077087602031D57280330F50067280630CD
:1000B00085006F20F60A77087602031D6228043057
:1000C000F5006728053085006F20F60A3A281030C1
:1000D0007702031D6D28F7030800F70A0800F330C4
:1000E000F2007F30F400F20B7628F40B732808003E
:1000F000C330F2000A30F400F20B7F28F40B7C28A6
:1001000008008A30F200BA30F3000330F400F20B3A
:100110008A28F30B8C28F40B87288E28000008000F
:10012000831288157820782078203330B420782006
:1001300078203230B420782078202830B4207820FD
:1001400078200C30B420782078200630B420782035
:1001500078200130B4207820782008000130B420C5
:100160000800C030B42008000811F900F0398800F8
:1001700088157820782078208811790EF039880049
:1001800088157820782078208811782078207820A9
:1001900008000815F8007808F039043E8800881532
:1001A0007820782078208811780EF039043E880075
:0C01B0008815782078207820881108003D
:02400E00723FFF
:00000001FF
