:020000040000FA
:020000001C28BA
:040002000034003492
:08000800090082075934653438
:1000100073342034633461346E3464346C34653446
:10002000003482074E346F342034633461346E34CC
:1000300064346C34653400348B01831603138501FA
:10004000F230860088010130890007309F0083125A
:10005000031385018601880189019220861C2E28C0
:10006000060E0F390C3A03193820861835282E2829
:10007000B02079100530F600093085006F20083077
:1000800085006F200A3085006F20023085006F20C8
:10009000063085006F20043085006F200530850014
:1000A0006F20013085006F20F60B3C288501791800
:1000B0006428F501030175081120003A031963282B
:1000C000CB20F50A5B280800F5010301750805201F
:1000D000003A03196E28CB20F50A66280800F33091
:1000E000F2002F30F40009187914F20B7828F40B81
:1000F00073280800C330F2000A30F400F20B8128A4
:10010000F40B7E2808008A30F200BA30F300033086
:10011000F400F20B8C28F30B8E28F40B892890281E
:1001200000000800831288157A207A207A20333064
:10013000B6207A207A203230B6207A207A202830F1
:10014000B6207A207A200C30B6207A207A20063029
:10015000B6207A207A200130B6207A207A20080052
:100160000130B6200800C030B62008000811F800A1
:10017000F039880088157A207A207A208811780E44
:10018000F039880088157A207A207A2088117A2020
:100190007A207A2008000815F7007708F039043E25
:1001A000880088157A207A207A208811770EF03915
:1001B000043E880088157A207A207A208811080069
:02400E00723FFF
:00000001FF
