:020000040000FA
:020000000528D1
:040002000034003492
:0800080009008B0183160313AC
:100010008501F2308600880107309F0083120313A8
:100020008501860188018F200130F5000F30F7002F
:10003000861C1828060E0F390C3A03192220861840
:100040001F281828AD207708303EC8207508303E9C
:10005000C820F6010130750203193A2802307502F2
:100060000319472803307502031954280430750218
:100070000319612877087602031D41280130F50035
:100080006F2809308500772077208020F60A7708CE
:100090007602031D4E280230F5006F280A308500D5
:1000A000772077208020F60A77087602031D5B28E8
:1000B0000330F5006F2806308500772077208020F8
:1000C000F60A77087602031D68280430F5006F28C9
:1000D00005308500772077208020F60A3A281030F6
:1000E0007702031D7528F7030800F70A0800C330DC
:1000F000F0000A30F100F00B7E28F10B7B2808009D
:100100008A30F200BA30F3000330F400F20B892891
:10011000F30B8B28F40B86288D280000080083122F
:1001200088157720772077203330B3207720772009
:100130003230B320772077202830B3207720772003
:100140000C30B320772077200630B320772077203B
:100150000130B3207720772008000130B320080059
:10016000C030B32008000811F900F0398800881564
:100170007720772077208811790EF039880088154C
:100180007720772077208811772077207720080044
:100190000815F8007808F039043E880088157720A3
:1001A000772077208811780EF039043E8800881572
:0A01B00077207720772088110800DF
:02400E00723FFF
:00000001FF
